{
  "_format": "hh-sol-artifact-1",
  "contractName": "Compoundor",
  "sourceName": "contracts/Compoundor.sol",
  "abi": [
    {
      "inputs": [
        {
          "internalType": "address",
          "name": "_weth",
          "type": "address"
        },
        {
          "internalType": "contract IUniswapV3Factory",
          "name": "_factory",
          "type": "address"
        },
        {
          "internalType": "contract INonfungiblePositionManager",
          "name": "_nonfungiblePositionManager",
          "type": "address"
        },
        {
          "internalType": "contract ISwapRouter",
          "name": "_swapRouter",
          "type": "address"
        }
      ],
      "stateMutability": "nonpayable",
      "type": "constructor"
    },
    {
      "anonymous": false,
      "inputs": [
        {
          "indexed": false,
          "internalType": "address",
          "name": "account",
          "type": "address"
        },
        {
          "indexed": false,
          "internalType": "uint256",
          "name": "tokenId",
          "type": "uint256"
        },
        {
          "indexed": false,
          "internalType": "uint256",
          "name": "amountAdded0",
          "type": "uint256"
        },
        {
          "indexed": false,
          "internalType": "uint256",
          "name": "amountAdded1",
          "type": "uint256"
        },
        {
          "indexed": false,
          "internalType": "uint256",
          "name": "bonus0",
          "type": "uint256"
        },
        {
          "indexed": false,
          "internalType": "uint256",
          "name": "bonus1",
          "type": "uint256"
        },
        {
          "indexed": false,
          "internalType": "address",
          "name": "token0",
          "type": "address"
        },
        {
          "indexed": false,
          "internalType": "address",
          "name": "token1",
          "type": "address"
        }
      ],
      "name": "AutoCompounded",
      "type": "event"
    },
    {
      "anonymous": false,
      "inputs": [
        {
          "indexed": false,
          "internalType": "address",
          "name": "account",
          "type": "address"
        },
        {
          "indexed": false,
          "internalType": "address",
          "name": "token",
          "type": "address"
        },
        {
          "indexed": false,
          "internalType": "uint256",
          "name": "amount",
          "type": "uint256"
        }
      ],
      "name": "BalanceAdded",
      "type": "event"
    },
    {
      "anonymous": false,
      "inputs": [
        {
          "indexed": false,
          "internalType": "address",
          "name": "account",
          "type": "address"
        },
        {
          "indexed": false,
          "internalType": "address",
          "name": "token",
          "type": "address"
        },
        {
          "indexed": false,
          "internalType": "uint256",
          "name": "amount",
          "type": "uint256"
        }
      ],
      "name": "BalanceRemoved",
      "type": "event"
    },
    {
      "anonymous": false,
      "inputs": [
        {
          "indexed": false,
          "internalType": "address",
          "name": "account",
          "type": "address"
        },
        {
          "indexed": false,
          "internalType": "address",
          "name": "token",
          "type": "address"
        },
        {
          "indexed": false,
          "internalType": "address",
          "name": "to",
          "type": "address"
        },
        {
          "indexed": false,
          "internalType": "uint256",
          "name": "amount",
          "type": "uint256"
        }
      ],
      "name": "BalanceWithdrawn",
      "type": "event"
    },
    {
      "anonymous": false,
      "inputs": [
        {
          "indexed": false,
          "internalType": "address",
          "name": "account",
          "type": "address"
        },
        {
          "indexed": false,
          "internalType": "uint64",
          "name": "totalBonusX64",
          "type": "uint64"
        },
        {
          "indexed": false,
          "internalType": "uint64",
          "name": "compounderBonusX64",
          "type": "uint64"
        }
      ],
      "name": "BonusUpdated",
      "type": "event"
    },
    {
      "anonymous": false,
      "inputs": [
        {
          "indexed": false,
          "internalType": "address",
          "name": "account",
          "type": "address"
        },
        {
          "indexed": false,
          "internalType": "uint32",
          "name": "maxTWAPTickDifference",
          "type": "uint32"
        }
      ],
      "name": "MaxTWAPTickDifferenceUpdated",
      "type": "event"
    },
    {
      "anonymous": false,
      "inputs": [
        {
          "indexed": true,
          "internalType": "address",
          "name": "previousOwner",
          "type": "address"
        },
        {
          "indexed": true,
          "internalType": "address",
          "name": "newOwner",
          "type": "address"
        }
      ],
      "name": "OwnershipTransferred",
      "type": "event"
    },
    {
      "anonymous": false,
      "inputs": [
        {
          "indexed": false,
          "internalType": "address",
          "name": "account",
          "type": "address"
        },
        {
          "indexed": false,
          "internalType": "uint256",
          "name": "tokenId",
          "type": "uint256"
        }
      ],
      "name": "TokenDeposited",
      "type": "event"
    },
    {
      "anonymous": false,
      "inputs": [
        {
          "indexed": false,
          "internalType": "address",
          "name": "account",
          "type": "address"
        },
        {
          "indexed": false,
          "internalType": "address",
          "name": "to",
          "type": "address"
        },
        {
          "indexed": false,
          "internalType": "uint256",
          "name": "tokenId",
          "type": "uint256"
        }
      ],
      "name": "TokenWithdrawn",
      "type": "event"
    },
    {
      "inputs": [],
      "name": "MAX_BONUS_X64",
      "outputs": [
        {
          "internalType": "uint64",
          "name": "",
          "type": "uint64"
        }
      ],
      "stateMutability": "view",
      "type": "function"
    },
    {
      "inputs": [],
      "name": "MAX_DEADLINE_IN_FUTURE",
      "outputs": [
        {
          "internalType": "uint32",
          "name": "",
          "type": "uint32"
        }
      ],
      "stateMutability": "view",
      "type": "function"
    },
    {
      "inputs": [],
      "name": "MAX_POSITIONS_PER_ADDRESS",
      "outputs": [
        {
          "internalType": "uint32",
          "name": "",
          "type": "uint32"
        }
      ],
      "stateMutability": "view",
      "type": "function"
    },
    {
      "inputs": [
        {
          "internalType": "address",
          "name": "",
          "type": "address"
        },
        {
          "internalType": "address",
          "name": "",
          "type": "address"
        }
      ],
      "name": "accountBalances",
      "outputs": [
        {
          "internalType": "uint256",
          "name": "",
          "type": "uint256"
        }
      ],
      "stateMutability": "view",
      "type": "function"
    },
    {
      "inputs": [
        {
          "internalType": "address",
          "name": "",
          "type": "address"
        },
        {
          "internalType": "uint256",
          "name": "",
          "type": "uint256"
        }
      ],
      "name": "accountTokens",
      "outputs": [
        {
          "internalType": "uint256",
          "name": "",
          "type": "uint256"
        }
      ],
      "stateMutability": "view",
      "type": "function"
    },
    {
      "inputs": [
        {
          "components": [
            {
              "internalType": "uint256",
              "name": "tokenId",
              "type": "uint256"
            },
            {
              "internalType": "enum ICompoundor.BonusConversion",
              "name": "bonusConversion",
              "type": "uint8"
            },
            {
              "internalType": "bool",
              "name": "withdrawBonus",
              "type": "bool"
            },
            {
              "internalType": "bool",
              "name": "doSwap",
              "type": "bool"
            },
            {
              "internalType": "uint256",
              "name": "deadline",
              "type": "uint256"
            }
          ],
          "internalType": "struct ICompoundor.AutoCompoundParams",
          "name": "params",
          "type": "tuple"
        }
      ],
      "name": "autoCompound",
      "outputs": [
        {
          "internalType": "uint256",
          "name": "bonus0",
          "type": "uint256"
        },
        {
          "internalType": "uint256",
          "name": "bonus1",
          "type": "uint256"
        },
        {
          "internalType": "uint256",
          "name": "compounded0",
          "type": "uint256"
        },
        {
          "internalType": "uint256",
          "name": "compounded1",
          "type": "uint256"
        }
      ],
      "stateMutability": "nonpayable",
      "type": "function"
    },
    {
      "inputs": [
        {
          "internalType": "address",
          "name": "account",
          "type": "address"
        }
      ],
      "name": "balanceOf",
      "outputs": [
        {
          "internalType": "uint256",
          "name": "balance",
          "type": "uint256"
        }
      ],
      "stateMutability": "view",
      "type": "function"
    },
    {
      "inputs": [
        {
          "components": [
            {
              "internalType": "uint256",
              "name": "tokenId",
              "type": "uint256"
            },
            {
              "internalType": "address",
              "name": "recipient",
              "type": "address"
            },
            {
              "internalType": "uint128",
              "name": "amount0Max",
              "type": "uint128"
            },
            {
              "internalType": "uint128",
              "name": "amount1Max",
              "type": "uint128"
            }
          ],
          "internalType": "struct INonfungiblePositionManager.CollectParams",
          "name": "params",
          "type": "tuple"
        }
      ],
      "name": "collect",
      "outputs": [
        {
          "internalType": "uint256",
          "name": "amount0",
          "type": "uint256"
        },
        {
          "internalType": "uint256",
          "name": "amount1",
          "type": "uint256"
        }
      ],
      "stateMutability": "payable",
      "type": "function"
    },
    {
      "inputs": [],
      "name": "compounderBonusX64",
      "outputs": [
        {
          "internalType": "uint64",
          "name": "",
          "type": "uint64"
        }
      ],
      "stateMutability": "view",
      "type": "function"
    },
    {
      "inputs": [
        {
          "components": [
            {
              "internalType": "uint256",
              "name": "tokenId",
              "type": "uint256"
            },
            {
              "internalType": "uint128",
              "name": "liquidity",
              "type": "uint128"
            },
            {
              "internalType": "uint256",
              "name": "amount0Min",
              "type": "uint256"
            },
            {
              "internalType": "uint256",
              "name": "amount1Min",
              "type": "uint256"
            },
            {
              "internalType": "uint256",
              "name": "deadline",
              "type": "uint256"
            },
            {
              "internalType": "address",
              "name": "recipient",
              "type": "address"
            }
          ],
          "internalType": "struct ICompoundor.DecreaseLiquidityAndCollectParams",
          "name": "params",
          "type": "tuple"
        }
      ],
      "name": "decreaseLiquidityAndCollect",
      "outputs": [
        {
          "internalType": "uint256",
          "name": "amount0",
          "type": "uint256"
        },
        {
          "internalType": "uint256",
          "name": "amount1",
          "type": "uint256"
        }
      ],
      "stateMutability": "payable",
      "type": "function"
    },
    {
      "inputs": [],
      "name": "factory",
      "outputs": [
        {
          "internalType": "contract IUniswapV3Factory",
          "name": "",
          "type": "address"
        }
      ],
      "stateMutability": "view",
      "type": "function"
    },
    {
      "inputs": [],
      "name": "maxTWAPTickDifference",
      "outputs": [
        {
          "internalType": "uint32",
          "name": "",
          "type": "uint32"
        }
      ],
      "stateMutability": "view",
      "type": "function"
    },
    {
      "inputs": [
        {
          "internalType": "bytes[]",
          "name": "data",
          "type": "bytes[]"
        }
      ],
      "name": "multicall",
      "outputs": [
        {
          "internalType": "bytes[]",
          "name": "results",
          "type": "bytes[]"
        }
      ],
      "stateMutability": "nonpayable",
      "type": "function"
    },
    {
      "inputs": [],
      "name": "nonfungiblePositionManager",
      "outputs": [
        {
          "internalType": "contract INonfungiblePositionManager",
          "name": "",
          "type": "address"
        }
      ],
      "stateMutability": "view",
      "type": "function"
    },
    {
      "inputs": [
        {
          "internalType": "address",
          "name": "",
          "type": "address"
        },
        {
          "internalType": "address",
          "name": "from",
          "type": "address"
        },
        {
          "internalType": "uint256",
          "name": "tokenId",
          "type": "uint256"
        },
        {
          "internalType": "bytes",
          "name": "",
          "type": "bytes"
        }
      ],
      "name": "onERC721Received",
      "outputs": [
        {
          "internalType": "bytes4",
          "name": "",
          "type": "bytes4"
        }
      ],
      "stateMutability": "nonpayable",
      "type": "function"
    },
    {
      "inputs": [],
      "name": "owner",
      "outputs": [
        {
          "internalType": "address",
          "name": "",
          "type": "address"
        }
      ],
      "stateMutability": "view",
      "type": "function"
    },
    {
      "inputs": [
        {
          "internalType": "uint256",
          "name": "",
          "type": "uint256"
        }
      ],
      "name": "ownerOf",
      "outputs": [
        {
          "internalType": "address",
          "name": "",
          "type": "address"
        }
      ],
      "stateMutability": "view",
      "type": "function"
    },
    {
      "inputs": [],
      "name": "renounceOwnership",
      "outputs": [],
      "stateMutability": "nonpayable",
      "type": "function"
    },
    {
      "inputs": [
        {
          "internalType": "uint64",
          "name": "_totalBonusX64",
          "type": "uint64"
        },
        {
          "internalType": "uint64",
          "name": "_compounderBonusX64",
          "type": "uint64"
        }
      ],
      "name": "setBonus",
      "outputs": [],
      "stateMutability": "nonpayable",
      "type": "function"
    },
    {
      "inputs": [
        {
          "internalType": "uint32",
          "name": "_maxTWAPTickDifference",
          "type": "uint32"
        }
      ],
      "name": "setMaxTWAPTickDifference",
      "outputs": [],
      "stateMutability": "nonpayable",
      "type": "function"
    },
    {
      "inputs": [
        {
          "components": [
            {
              "internalType": "uint256",
              "name": "tokenId",
              "type": "uint256"
            },
            {
              "internalType": "uint256",
              "name": "amount0",
              "type": "uint256"
            },
            {
              "internalType": "uint256",
              "name": "amount1",
              "type": "uint256"
            },
            {
              "internalType": "uint256",
              "name": "deadline",
              "type": "uint256"
            }
          ],
          "internalType": "struct ICompoundor.SwapAndIncreaseLiquidityParams",
          "name": "params",
          "type": "tuple"
        }
      ],
      "name": "swapAndIncreaseLiquidity",
      "outputs": [
        {
          "internalType": "uint128",
          "name": "liquidity",
          "type": "uint128"
        },
        {
          "internalType": "uint256",
          "name": "amount0",
          "type": "uint256"
        },
        {
          "internalType": "uint256",
          "name": "amount1",
          "type": "uint256"
        }
      ],
      "stateMutability": "payable",
      "type": "function"
    },
    {
      "inputs": [
        {
          "components": [
            {
              "internalType": "address",
              "name": "token0",
              "type": "address"
            },
            {
              "internalType": "address",
              "name": "token1",
              "type": "address"
            },
            {
              "internalType": "uint24",
              "name": "fee",
              "type": "uint24"
            },
            {
              "internalType": "int24",
              "name": "tickLower",
              "type": "int24"
            },
            {
              "internalType": "int24",
              "name": "tickUpper",
              "type": "int24"
            },
            {
              "internalType": "uint256",
              "name": "amount0",
              "type": "uint256"
            },
            {
              "internalType": "uint256",
              "name": "amount1",
              "type": "uint256"
            },
            {
              "internalType": "address",
              "name": "recipient",
              "type": "address"
            },
            {
              "internalType": "uint256",
              "name": "deadline",
              "type": "uint256"
            }
          ],
          "internalType": "struct ICompoundor.SwapAndMintParams",
          "name": "params",
          "type": "tuple"
        }
      ],
      "name": "swapAndMint",
      "outputs": [
        {
          "internalType": "uint256",
          "name": "tokenId",
          "type": "uint256"
        },
        {
          "internalType": "uint128",
          "name": "liquidity",
          "type": "uint128"
        },
        {
          "internalType": "uint256",
          "name": "amount0",
          "type": "uint256"
        },
        {
          "internalType": "uint256",
          "name": "amount1",
          "type": "uint256"
        }
      ],
      "stateMutability": "payable",
      "type": "function"
    },
    {
      "inputs": [],
      "name": "swapRouter",
      "outputs": [
        {
          "internalType": "contract ISwapRouter",
          "name": "",
          "type": "address"
        }
      ],
      "stateMutability": "view",
      "type": "function"
    },
    {
      "inputs": [],
      "name": "totalBonusX64",
      "outputs": [
        {
          "internalType": "uint64",
          "name": "",
          "type": "uint64"
        }
      ],
      "stateMutability": "view",
      "type": "function"
    },
    {
      "inputs": [
        {
          "internalType": "address",
          "name": "newOwner",
          "type": "address"
        }
      ],
      "name": "transferOwnership",
      "outputs": [],
      "stateMutability": "nonpayable",
      "type": "function"
    },
    {
      "inputs": [],
      "name": "weth",
      "outputs": [
        {
          "internalType": "address",
          "name": "",
          "type": "address"
        }
      ],
      "stateMutability": "view",
      "type": "function"
    },
    {
      "inputs": [
        {
          "internalType": "address",
          "name": "token",
          "type": "address"
        },
        {
          "internalType": "address",
          "name": "to",
          "type": "address"
        },
        {
          "internalType": "uint256",
          "name": "amount",
          "type": "uint256"
        }
      ],
      "name": "withdrawBalance",
      "outputs": [],
      "stateMutability": "nonpayable",
      "type": "function"
    },
    {
      "inputs": [
        {
          "internalType": "uint256",
          "name": "tokenId",
          "type": "uint256"
        },
        {
          "internalType": "address",
          "name": "to",
          "type": "address"
        },
        {
          "internalType": "bool",
          "name": "withdrawBalances",
          "type": "bool"
        },
        {
          "internalType": "bytes",
          "name": "data",
          "type": "bytes"
        }
      ],
      "name": "withdrawToken",
      "outputs": [],
      "stateMutability": "nonpayable",
      "type": "function"
    }
  ],
  "bytecode": "0x608060405260018054600160a01b600160e01b03191666a3d70a3d70a3d760a31b179055600267051eb851eb851eb8600280546001600160401b031916929091046001600160401b03169190911763ffffffff60401b1916686400000000000000001790553480156200007157600080fd5b50604051620056483803806200564883398101604081905262000094916200015d565b60016000908155620000a562000159565b600180546001600160a01b0319166001600160a01b038316908117909155604051919250906000907f8be0079c531659141344cd1fd0a4f28419497f9722a3daafe3b4186f6b6457e0908290a350600280546001600160a01b039586166c01000000000000000000000000026001600160601b03909116179055600380549385166001600160a01b0319948516179055600480549285169284169290921790915560058054919093169116179055620001dd565b3390565b6000806000806080858703121562000173578384fd5b84516200018081620001c4565b60208601519094506200019381620001c4565b6040860151909350620001a681620001c4565b6060860151909250620001b981620001c4565b939692955090935050565b6001600160a01b0381168114620001da57600080fd5b50565b61545b80620001ed6000396000f3fe6080604052600436106101b75760003560e01c80636352211e116100ec578063ac9650d81161008a578063c31c9c0711610064578063c31c9c07146104bd578063c45a0155146104d2578063f2fde38b146104e7578063fc6f786514610507576101b7565b8063ac9650d814610466578063acf5e73a14610493578063b44a2722146104a8576101b7565b8063715018a6116100c6578063715018a6146103f95780638da5cb5b1461040e5780639001a1dd1461042357806396f77bdb14610443576101b7565b80636352211e146103a457806367751308146103c457806370a08231146103d9576101b7565b80632b73f3ae116101595780634948b6ff116101335780634948b6ff1461032d578063519e177b1461034f5780635a9ff33f1461036f5780636242da2f14610384576101b7565b80632b73f3ae146102ca5780633fc8cef3146102eb57806345d9a1ce1461030d576101b7565b806312ea21951161019557806312ea219514610236578063150b7a021461025857806329ecf85d146102855780632b51ca16146102b5576101b7565b80630c66bc6a146101bc5780630d334380146101de5780631242e5fd14610209575b600080fd5b3480156101c857600080fd5b506101dc6101d7366004614927565b61051a565b005b3480156101ea57600080fd5b506101f3610672565b60405161020091906151e6565b60405180910390f35b34801561021557600080fd5b50610229610224366004614350565b610685565b6040516102009190615190565b34801561024257600080fd5b5061024b6106a2565b60405161020091906151f7565b34801561026457600080fd5b506102786102733660046143c8565b6106b1565b6040516102009190614d09565b34801561029157600080fd5b506102a56102a03660046145f9565b610784565b60405161020094939291906151cb565b3480156102c157600080fd5b506101f3610fdb565b6102dd6102d8366004614697565b610fe0565b6040516102009291906151bd565b3480156102f757600080fd5b50610300611228565b6040516102009190614ade565b34801561031957600080fd5b506101dc610328366004614388565b61123e565b61034061033b36600461467c565b6112e1565b6040516102009392919061516f565b34801561035b57600080fd5b506101dc61036a366004614903565b61160a565b34801561037b57600080fd5b5061024b6116cc565b34801561039057600080fd5b5061022961039f366004614461565b6116d8565b3480156103b057600080fd5b506103006103bf3660046147be565b611709565b3480156103d057600080fd5b506101f3611724565b3480156103e557600080fd5b506102296103f4366004614318565b61172a565b34801561040557600080fd5b506101dc611749565b34801561041a57600080fd5b506103006117f5565b34801561042f57600080fd5b506101dc61043e3660046147ee565b611804565b6104566104513660046146a8565b611a09565b6040516102009493929190615199565b34801561047257600080fd5b5061048661048136600461448c565b611e23565b6040516102009190614c5f565b34801561049f57600080fd5b5061024b611f00565b3480156104b457600080fd5b50610300611f16565b3480156104c957600080fd5b50610300611f25565b3480156104de57600080fd5b50610300611f34565b3480156104f357600080fd5b506101dc610502366004614318565b611f43565b6102dd61051536600461467c565b612046565b61052261215a565b6001600160a01b03166105336117f5565b6001600160a01b03161461057c576040805162461bcd60e51b81526020600482018190526024820152600080516020615359833981519152604482015290519081900360640190fd5b6001546001600160401b03600160a01b909104811690831611156105bb5760405162461bcd60e51b81526004016105b290614dc6565b60405180910390fd5b816001600160401b0316816001600160401b031611156105ed5760405162461bcd60e51b81526004016105b290614d45565b6001805467ffffffffffffffff60a01b1916600160a01b6001600160401b0385811691909102919091179091556002805467ffffffffffffffff19169183169190911790556040517f6bf5eac09393e139ddf7cf518865661d7035e774bfb280d4226cbe4ef0652ed79061066690339085908590614ba7565b60405180910390a15050565b600254600160401b900463ffffffff1681565b600860209081526000928352604080842090915290825290205481565b6002546001600160401b031681565b6000600260005414156106f9576040805162461bcd60e51b815260206004820152601f60248201526000805160206152f2833981519152604482015290519081900360640190fd5b60026000556004546001600160a01b031633146107285760405162461bcd60e51b81526004016105b290614da2565b6107348486600161215e565b7fbc7c8a4d8049a3f99a02f2a20640c206a2e4d3f2fa54fd20da9f01fda3620cda8585604051610765929190614c46565b60405180910390a150630a85bd0160e11b600160005595945050505050565b600080600080600260005414156107d0576040805162461bcd60e51b815260206004820152601f60248201526000805160206152f2833981519152604482015290519081900360640190fd5b6002600090815585518152600660205260409020546001600160a01b031661080a5760405162461bcd60e51b81526004016105b290614edb565b6080850151426101f401116108315760405162461bcd60e51b81526004016105b290614e15565b61083961409a565b6004805460408051608081018252895181523060208201526001600160801b038183018190526060820152905163fc6f786560e01b81526001600160a01b039092169263fc6f78659261088d929101614f9f565b6040805180830381600087803b1580156108a657600080fd5b505af11580156108ba573d6000803e3d6000fd5b505050506040513d601f19601f820116820180604052508101906108de91906148e0565b6020830152815260048054875160405163133f757160e31b81526001600160a01b03909216926399fbab8892610915929101615190565b6101806040518083038186803b15801561092e57600080fd5b505afa158015610942573d6000803e3d6000fd5b505050506040513d601f19601f820116820180604052508101906109669190614959565b5050505050600290810b810b61018089015290810b900b61016087015262ffffff166101408601526001600160a01b0390811661012086015290811661010085019081528951600090815260066020908152604080832054851660e089018190528352600882528083209351909416825291909152205483516109eb93509150612284565b815260e08101516001600160a01b03908116600090815260086020908152604080832061012086015190941683529281529190205490820151610a2d91612284565b60208201528051151580610a45575060008160200151115b15610f5c5760006040518061016001604052808361010001516001600160a01b031681526020018361012001516001600160a01b0316815260200183610140015162ffffff16815260200183610160015160020b815260200183610180015160020b815260200183600001518152602001836020015181526020018860800151815260200188602001516002811115610ada57fe5b815260e08401516001600160a01b031633146020820152606089015115156040909101529050610b09816122e5565b60608701526040860181905260c08601919091526020850191909152908352151580610b39575060008260600151115b15610bfe57600480546040805160c0810182528a5181528582015160208201526060808701518284015260009082018190526080808301919091528b015160a0820152905163219f5d1760e01b81526001600160a01b039092169263219f5d1792610ba592910161507d565b606060405180830381600087803b158015610bbf57600080fd5b505af1158015610bd3573d6000803e3d6000fd5b505050506040513d601f19601f82011682018060405250810190610bf791906146d6565b9095509350505b60e08201516001600160a01b03163314610d9f57600087602001516002811115610c2457fe5b1415610c8f57600154610c5890600160401b90610c52908790600160a01b90046001600160401b0316612aae565b90612b07565b6080830152600154610c8590600160401b90610c52908690600160a01b90046001600160401b0316612aae565b60a0830152610d9f565b60c0820151600090610cb490610cad90610c5287600160601b612aae565b8690612284565b9050600188602001516002811115610cc857fe5b1415610d2957600154610cf690600160401b90610c52908490600160a01b90046001600160401b0316612aae565b60808401528251610d079086612b6e565b83608001511115610d24578251610d1e9086612b6e565b60808401525b610d9d565b60015460c0840151610d6991600160401b91610c5291600160a01b90046001600160401b031690610d6390600160601b9084908890612aae565b90612aae565b60a08401526020830151610d7d9085612b6e565b8360a001511115610d9d576020830151610d979085612b6e565b60a08401525b505b610dd78260e00151836101000151610dd28560800151610dcc898860000151612b6e90919063ffffffff16565b90612b6e565b612bcb565b610e048260e00151836101200151610dd28560a00151610dcc888860200151612b6e90919063ffffffff16565b60e08201516001600160a01b0316331415610e26576000955060009450610f5a565b33610e2f6117f5565b6001600160a01b03161415610e7957610e52338361010001518460800151612ce5565b610e66338361012001518460a00151612ce5565b816080015195508160a001519450610f5a565b60025460015460808401516001600160401b03928316600160a01b909204831691820392600092610eb2929091610c5291908616612aae565b60015460a0860151919250600091610ee2916001600160401b03600160a01b909104811691610c52918716612aae565b6080860151909150610ef49083612b6e565b60a0860151909950610f069082612b6e565b9750610f18338661010001518b612ce5565b610f28338661012001518a612ce5565b610f3f610f336117f5565b86610100015184612ce5565b610f56610f4a6117f5565b86610120015183612ce5565b5050505b505b856040015115610f7b57610f7b81610100015182610120015133612d7f565b85516101008201516101208301516040517f85058548e7a7243b0976c561ca5316398d5368a87260205c952f2dc35aadc4ea93610fc49333939192899289928d928d9290614b40565b60405180910390a150600160005592949193509190565b606481565b60008060026000541415611029576040805162461bcd60e51b815260206004820152601f60248201526000805160206152f2833981519152604482015290519081900360640190fd5b6002600090815583358152600660205260409020546001600160a01b031633146110655760405162461bcd60e51b81526004016105b290614efb565b6004546040805160a081018252853581526001600160a01b0390921691630c49ccbe9160208083019161109d919089019089016146ba565b6001600160801b03168152602001866040013581526020018660600135815260200186608001358152506040518263ffffffff1660e01b81526004016110e39190614fe2565b6040805180830381600087803b1580156110fc57600080fd5b505af1158015611110573d6000803e3d6000fd5b505050506040513d601f19601f8201168201806040525081019061113491906148e0565b60408051608081019091528535815291935091506000906020810161115f60c0870160a08801614318565b6001600160a01b0316815260200161117685612df2565b6001600160801b0316815260200161118d84612df2565b6001600160801b031690526004805460405163fc6f786560e01b81529293506001600160a01b03169163fc6f7865916111c891859101614f9f565b6040805180830381600087803b1580156111e157600080fd5b505af11580156111f5573d6000803e3d6000fd5b505050506040513d601f19601f8201168201806040525081019061121991906148e0565b50506001600055509092909150565b600254600160601b90046001600160a01b031681565b60026000541415611284576040805162461bcd60e51b815260206004820152601f60248201526000805160206152f2833981519152604482015290519081900360640190fd5b6002600055806112a65760405162461bcd60e51b81526004016105b290614f1b565b3360009081526008602090815260408083206001600160a01b03871684529091529020546112d684848385612e08565b505060016000555050565b60008060006002600054141561132c576040805162461bcd60e51b815260206004820152601f60248201526000805160206152f2833981519152604482015290519081900360640190fd5b6002600055426101f4016060850135106113585760405162461bcd60e51b81526004016105b290614e15565b611360614128565b6004805460405163133f757160e31b81526001600160a01b03909116916399fbab88916113909189359101615190565b6101806040518083038186803b1580156113a957600080fd5b505afa1580156113bd573d6000803e3d6000fd5b505050506040513d601f19601f820116820180604052508101906113e19190614959565b5050505050600290810b810b608089015290810b900b606087015262ffffff166040808701919091526001600160a01b03918216602080880182905292909316808752611438955093509089013590890135612ef8565b8260a0018360c00182815250828152505050600060405180610160016040528083600001516001600160a01b0316815260200183602001516001600160a01b03168152602001836040015162ffffff168152602001836060015160020b8152602001836080015160020b81526020018360a0015181526020018360c00151815260200187606001358152602001600060028111156114d257fe5b815260016020820181905260409091015290506114ee816122e5565b505050610100840190815260e084019182526040805160c081018252893581529251602084015290518282015260006060808401829052608084019190915288013560a083015260048054915163219f5d1760e01b81526001600160a01b039092169163219f5d17916115639185910161507d565b606060405180830381600087803b15801561157d57600080fd5b505af1158015611591573d6000803e3d6000fd5b505050506040513d601f19601f820116820180604052508101906115b591906146d6565b855160e087015193995091975095506115da913391906115d59089612b6e565b612ce5565b6115fb3384602001516115d587876101000151612b6e90919063ffffffff16565b50506001600055509193909250565b61161261215a565b6001600160a01b03166116236117f5565b6001600160a01b03161461166c576040805162461bcd60e51b81526020600482018190526024820152600080516020615359833981519152604482015290519081900360640190fd5b600280546bffffffff00000000000000001916600160401b63ffffffff8416021790556040517fe076531897537575371a260e5d0ebf05a9367bda57fe2a3d0750398e2f3d6cfa906116c19033908490614b88565b60405180910390a150565b67051eb851eb851eb881565b600760205281600052604060002081815481106116f457600080fd5b90600052602060002001600091509150505481565b6006602052600090815260409020546001600160a01b031681565b6101f481565b6001600160a01b0381166000908152600760205260409020545b919050565b61175161215a565b6001600160a01b03166117626117f5565b6001600160a01b0316146117ab576040805162461bcd60e51b81526020600482018190526024820152600080516020615359833981519152604482015290519081900360640190fd5b6001546040516000916001600160a01b0316907f8be0079c531659141344cd1fd0a4f28419497f9722a3daafe3b4186f6b6457e0908390a3600180546001600160a01b0319169055565b6001546001600160a01b031690565b6002600054141561184a576040805162461bcd60e51b815260206004820152601f60248201526000805160206152f2833981519152604482015290519081900360640190fd5b60026000556001600160a01b0383163014156118785760405162461bcd60e51b81526004016105b290614eb9565b6000848152600660205260409020546001600160a01b031633146118ae5760405162461bcd60e51b81526004016105b290614efb565b6118b83385613130565b60048054604051635c46a7ef60e11b81526001600160a01b039091169163b88d4fde916118ed91309188918a91889101614c13565b600060405180830381600087803b15801561190757600080fd5b505af115801561191b573d6000803e3d6000fd5b505050507f8210728e7c071f615b840ee026032693858fbcd5e5359e67e438c890f59e562033848660405161195293929190614b1c565b60405180910390a181156112d6576004805460405163133f757160e31b815260009283926001600160a01b0316916399fbab8891611992918a9101615190565b6101806040518083038186803b1580156119ab57600080fd5b505afa1580156119bf573d6000803e3d6000fd5b505050506040513d601f19601f820116820180604052508101906119e39190614959565b50505050505050509350935050506119fc828287612d7f565b5050505060016000555050565b60008060008060026000541415611a55576040805162461bcd60e51b815260206004820152601f60248201526000805160206152f2833981519152604482015290519081900360640190fd5b6002600055426101f40161010086013510611a825760405162461bcd60e51b81526004016105b290614e15565b611a926040860160208701614318565b6001600160a01b0316611aa86020870187614318565b6001600160a01b03161415611acf5760405162461bcd60e51b81526004016105b290614e3f565b611ad7614174565b611b06611ae76020880188614318565b611af76040890160208a01614318565b8860a001358960c00135612ef8565b6020808401919091529082526040805161016081019091526000918190611b2f908a018a614318565b6001600160a01b03168152602001886020016020810190611b509190614318565b6001600160a01b03168152602001611b6e60608a0160408b016147a2565b62ffffff168152602001611b8860808a0160608b016145dd565b60020b8152602001611ba060a08a0160808b016145dd565b60020b8152835160208083019190915284015160408201526101008901356060820152608001600081526001602082018190526040909101529050611be4816122e5565b50505060608401526040808401919091528051610160810190915260009080611c1060208b018b614318565b6001600160a01b03168152602001896020016020810190611c319190614318565b6001600160a01b03168152602001611c4f60608b0160408c016147a2565b62ffffff168152602001611c6960808b0160608c016145dd565b60020b8152602001611c8160a08b0160808c016145dd565b60020b8152604085810151602083015260608087015182840152600090830181905260808301523060a08301526101008b013560c090920191909152600480549151634418b22b60e11b81529293506001600160a01b0390911691638831645691611cee918591016150c1565b608060405180830381600087803b158015611d0857600080fd5b505af1158015611d1c573d6000803e3d6000fd5b505050506040513d601f19601f82011682018060405250810190611d4091906148a3565b92995090975095509350611d6687611d5f6101008b0160e08c01614318565b600061215e565b7fbc7c8a4d8049a3f99a02f2a20640c206a2e4d3f2fa54fd20da9f01fda3620cda611d986101008a0160e08b01614318565b88604051611da7929190614c46565b60405180910390a1611ddf611dc36101008a0160e08b01614318565b611dd060208b018b614318565b60408601516115d59089612b6e565b611e12611df36101008a0160e08b01614318565b611e0360408b0160208c01614318565b60608601516115d59088612b6e565b505060016000555092949193509190565b6060816001600160401b0381118015611e3b57600080fd5b50604051908082528060200260200182016040528015611e6f57816020015b6060815260200190600190039081611e5a5790505b50905060005b82811015611ef857611ed930858584818110611e8d57fe5b9050602002810190611e9f919061520b565b8080601f01602080910402602001604051908101604052809392919081815260200183838082843760009201919091525061327392505050565b828281518110611ee557fe5b6020908102919091010152600101611e75565b505b92915050565b600154600160a01b90046001600160401b031681565b6004546001600160a01b031681565b6005546001600160a01b031681565b6003546001600160a01b031681565b611f4b61215a565b6001600160a01b0316611f5c6117f5565b6001600160a01b031614611fa5576040805162461bcd60e51b81526020600482018190526024820152600080516020615359833981519152604482015290519081900360640190fd5b6001600160a01b038116611fea5760405162461bcd60e51b81526004018080602001828103825260268152602001806153126026913960400191505060405180910390fd5b6001546040516001600160a01b038084169216907f8be0079c531659141344cd1fd0a4f28419497f9722a3daafe3b4186f6b6457e090600090a3600180546001600160a01b0319166001600160a01b0392909216919091179055565b6000806002600054141561208f576040805162461bcd60e51b815260206004820152601f60248201526000805160206152f2833981519152604482015290519081900360640190fd5b6002600090815583358152600660205260409020546001600160a01b031633146120cb5760405162461bcd60e51b81526004016105b290614efb565b6004805460405163fc6f786560e01b81526001600160a01b039091169163fc6f7865916120fa91879101614f3e565b6040805180830381600087803b15801561211357600080fd5b505af1158015612127573d6000803e3d6000fd5b505050506040513d601f19601f8201168201806040525081019061214b91906148e0565b60016000559094909350915050565b3390565b6001600160a01b0382166000908152600760205260409020546064116121965760405162461bcd60e51b81526004016105b290614e8a565b6004805460405163133f757160e31b815260009283926001600160a01b0316916399fbab88916121c891899101615190565b6101806040518083038186803b1580156121e157600080fd5b505afa1580156121f5573d6000803e3d6000fd5b505050506040513d601f19601f820116820180604052508101906122199190614959565b50505050505050509350935050508215612237576122378282613298565b5050506001600160a01b03166000818152600760209081526040808320805460018101825590845282842001859055938252600690529190912080546001600160a01b0319169091179055565b6000828201838110156122de576040805162461bcd60e51b815260206004820152601b60248201527f536166654d6174683a206164646974696f6e206f766572666c6f770000000000604482015290519081900360640190fd5b9392505050565b60008060008060006122f561419c565b60a087015160c0880151600354895160208b01516040808d01519051630b4c774160e11b8152959b509399506000946001600160a01b0390931693631698ee829361234593929190600401614beb565b60206040518083038186803b15801561235d57600080fd5b505afa158015612371573d6000803e3d6000fd5b505050506040513d601f19601f820116820180604052508101906123959190614334565b9050806001600160a01b0316633850c7bd6040518163ffffffff1660e01b815260040160e06040518083038186803b1580156123d057600080fd5b505afa1580156123e4573d6000803e3d6000fd5b505050506040513d601f19601f82011682018060405250810190612408919061470c565b5050505050600290810b900b60808401526001600160a01b031660c08301526124308161341a565b1580156101a0850152600291820b90910b60a08401526124745761246f82608001518360a00151600260089054906101000a900463ffffffff1661355f565b61247d565b60006101408901525b60c082015161249f90600160601b90610c52906001600160a01b031680612aae565b6001549095506124dd90600160401b90610c5290600160a01b90046001600160401b0316610d636124d68a848d600160601b612aae565b8c90612284565b6101c083015261014088015115612958576124fb88606001516135d5565b6001600160a01b031660e08301526080880151612517906135d5565b6001600160a01b0316610100830181905260c083015160e084015161254092600160601b613907565b6060840152604083018190526125655761014082018790526001610180830152612685565b60608201516125935761258085610c5288600160601b612aae565b6101408301526000610180830152612685565b606082015160408301516125b09190610c5290600160601b612aae565b6101208301526125c487600160601b612aae565b6101208301516125d49088612aae565b106101808301819052156126395761012082015161262e9061260c90600160601b90612606908290610c52908b612aae565b90612284565b610120840151610c5290612620908a612aae565b610dcc8b600160601b612aae565b610140830152612685565b61012082015161267e9061265d90600160601b90612606908290610c52908b612aae565b610c5261266e8a600160601b612aae565b610120860151610dcc908b612aae565b6101408301525b87610120015161283457600188610100015160028111156126a257fe5b141561276c576101c082015182526101808201511561271557816101c00151826101400151106126ec576101c08201516101408301516126e191612b6e565b610140830152612710565b6101408201516101c083015161270191612b6e565b61014083015260006101808301525b612767565b6101c082015161014083015161272a91612284565b61014083015261274285610c5288600160601b612aae565b82610140015111156127675761276085610c5288600160601b612aae565b6101408301525b612834565b6002886101000151600281111561277f57fe5b1415612834576101c082015161279f90600160601b90610c529088612aae565b602083015261018082015161280757816101c00151826101400151106127df576101c08201516101408301516127d491612b6e565b610140830152612767565b6101408201516101c08301516127f491612b6e565b6101408301526001610180830152612834565b6101c082015161014083015161281c91612284565b61014083018190528710156128345761014082018790525b6101408201511561295357816101800151156128bd57600061288f89600001518a604001518b6020015160405160200161287093929190614aa0565b6040516020818303038152906040528461014001518b60e001516139a2565b90506128a983610140015189612b6e90919063ffffffff16565b97506128b58782612284565b965050612953565b6101408201516128d790600160601b90610c529088612aae565b61016083018190521561295357600061292989602001518a604001518b6000015160405160200161290a93929190614aa0565b6040516020818303038152906040528461016001518b60e001516139a2565b90506129358882612284565b975061294f83610160015188612b6e90919063ffffffff16565b9650505b6129c1565b8761012001516129c1576001886101000151600281111561297557fe5b1415612988576101c082015182526129c1565b6002886101000151600281111561299b57fe5b14156129c1576101c08201516129bb90600160601b90610c529088612aae565b60208301525b876101200151156129d757869350859250612aa3565b600088610100015160028111156129ea57fe5b1415612a6057600154612a2390612a1590600160a01b90046001600160401b0316600160401b612284565b610c5289600160401b612aae565b600154909450612a5990612a4b90600160a01b90046001600160401b0316600160401b612284565b610c5288600160401b612aae565b9250612aa3565b81518711612a6f576000612a7c565b8151612a7c908890612b6e565b935081602001518611612a90576000612aa0565b6020820151612aa0908790612b6e565b92505b505091939590929450565b600082612abd57506000611efa565b82820282848281612aca57fe5b04146122de5760405162461bcd60e51b81526004018080602001828103825260218152602001806153386021913960400191505060405180910390fd5b6000808211612b5d576040805162461bcd60e51b815260206004820152601a60248201527f536166654d6174683a206469766973696f6e206279207a65726f000000000000604482015290519081900360640190fd5b818381612b6657fe5b049392505050565b600082821115612bc5576040805162461bcd60e51b815260206004820152601e60248201527f536166654d6174683a207375627472616374696f6e206f766572666c6f770000604482015290519081900360640190fd5b50900390565b6001600160a01b0380841660009081526008602090815260408083209386168352929052205480821115612c6a576001600160a01b0380851660009081526008602090815260408083209387168352929052208290557fe1cb6ff87f969a5417674b37becf2a6b22fe022e53b42589f26de8c7beaf467e8484612c4e8585612b6e565b604051612c5d93929190614b1c565b60405180910390a1612cdf565b80821015612cdf576001600160a01b0380851660009081526008602090815260408083209387168352929052208290557fdc00da755aafba62cce1ed2ae8d6cc2004d2d2414ee2d571d190574ae4598a8b8484612cc78486612b6e565b604051612cd693929190614b1c565b60405180910390a15b50505050565b6001600160a01b03808416600090815260086020908152604080832093861683529290522054612d159082612284565b6001600160a01b038085166000908152600860209081526040808320938716835292905281902091909155517fe1cb6ff87f969a5417674b37becf2a6b22fe022e53b42589f26de8c7beaf467e90612d7290859085908590614b1c565b60405180910390a1505050565b3360009081526008602090815260408083206001600160a01b03871684529091529020548015612db557612db584838384612e08565b3360009081526008602090815260408083206001600160a01b03871684529091529020548015612deb57612deb84848384612e08565b5050505050565b806001600160801b038116811461174457600080fd5b81811115612e285760405162461bcd60e51b81526004016105b290614d7a565b3360009081526008602090815260408083206001600160a01b0388168452909152902054612e569082612b6e565b3360008181526008602090815260408083206001600160a01b038a168452909152908190209290925590517fdc00da755aafba62cce1ed2ae8d6cc2004d2d2414ee2d571d190574ae4598a8b91612eb09187908590614b1c565b60405180910390a1612ec3848483613a58565b7fadd3a6320dd54346ddf0c55851727ae3d93433722e55d17a42451c6c0ae66f9b33858584604051612cd69493929190614af2565b6000803415612fed57600254604051600091600160601b90046001600160a01b0316903490612f2690614adb565b60006040518083038185875af1925050503d8060008114612f63576040519150601f19603f3d011682016040523d82523d6000602084013e612f68565b606091505b5050905080612f895760405162461bcd60e51b81526004016105b290614dee565b6002546001600160a01b03888116600160601b909204161415612fae57349250612feb565b6002546001600160a01b03878116600160601b909204161415612fd357349150612feb565b60405162461bcd60e51b81526004016105b290614d1e565b505b81841115613085576001600160a01b0386166323b872dd33306130108887612b6e565b6040518463ffffffff1660e01b815260040161302e93929190614b1c565b602060405180830381600087803b15801561304857600080fd5b505af115801561305c573d6000803e3d6000fd5b505050506040513d601f19601f8201168201806040525081019061308091906145c1565b508391505b8083111561311d576001600160a01b0385166323b872dd33306130a88786612b6e565b6040518463ffffffff1660e01b81526004016130c693929190614b1c565b602060405180830381600087803b1580156130e057600080fd5b505af11580156130f4573d6000803e3d6000fd5b505050506040513d601f19601f8201168201806040525081019061311891906145c1565b508290505b6131278686613298565b94509492505050565b6001600160a01b03821660009081526007602090815260408083208054825181850281018501909352808352919290919083018282801561319057602002820191906000526020600020905b81548152602001906001019080831161317c575b5050835193945083925060009150505b828110156131d357848482815181106131b557fe5b602002602001015114156131cb578091506131d3565b6001016131a0565b508181106131dd57fe5b6001600160a01b038516600090815260076020526040902080548190600019810190811061320757fe5b906000526020600020015481838154811061321e57fe5b90600052602060002001819055508080548061323657fe5b60008281526020808220830160001990810183905590920190925595815260069095525050604090922080546001600160a01b0319169055505050565b60606122de838360405180606001604052806027815260200161537960279139613aaa565b60048054604051636eb1769f60e11b81526000926001600160a01b038681169363dd62ed3e936132ce9330939092169101614bd1565b60206040518083038186803b1580156132e657600080fd5b505afa1580156132fa573d6000803e3d6000fd5b505050506040513d601f19601f8201168201806040525081019061331e91906147d6565b9050806133595760045461333f9084906001600160a01b0316600019613bac565b6005546133599084906001600160a01b0316600019613bac565b60048054604051636eb1769f60e11b81526000926001600160a01b038681169363dd62ed3e9361338f9330939092169101614bd1565b60206040518083038186803b1580156133a757600080fd5b505afa1580156133bb573d6000803e3d6000fd5b505050506040513d601f19601f820116820180604052508101906133df91906147d6565b905080612cdf576004546134009084906001600160a01b0316600019613bac565b600554612cdf9084906001600160a01b0316600019613bac565b60408051600280825260608201835260009283928392909160208301908036833701905050905060008160008151811061345057fe5b602002602001019063ffffffff16908163ffffffff1681525050603c8160018151811061347957fe5b63ffffffff9092166020928302919091019091015260405163883bdbfd60e01b81526001600160a01b0385169063883bdbfd906134ba908490600401614cbf565b60006040518083038186803b1580156134d257600080fd5b505afa92505050801561350757506040513d6000823e601f3d908101601f1916820160405261350491908101906144fa565b60015b61351857600080925092505061355a565b603c8260018151811061352757fe5b60200260200101518360008151811061353c57fe5b60200260200101510360060b8161354f57fe5b056001945094505050505b915091565b8260020b8260020b13801561358657508063ffffffff1683830360020b65ffffffffffff16105b806135b457508260020b8260020b131580156135b457508063ffffffff1682840360020b65ffffffffffff16105b6135d05760405162461bcd60e51b81526004016105b290614e67565b505050565b60008060008360020b126135ec578260020b6135f4565b8260020b6000035b9050620d89e8811115613632576040805162461bcd60e51b81526020600482015260016024820152601560fa1b604482015290519081900360640190fd5b60006001821661364657600160801b613658565b6ffffcb933bd6fad37aa2d162d1a5940015b70ffffffffffffffffffffffffffffffffff169050600282161561368c576ffff97272373d413259a46990580e213a0260801c5b60048216156136ab576ffff2e50f5f656932ef12357cf3c7fdcc0260801c5b60088216156136ca576fffe5caca7e10e4e61c3624eaa0941cd00260801c5b60108216156136e9576fffcb9843d60f6159c9db58835c9266440260801c5b6020821615613708576fff973b41fa98c081472e6896dfb254c00260801c5b6040821615613727576fff2ea16466c96a3843ec78b326b528610260801c5b6080821615613746576ffe5dee046a99a2a811c461f1969c30530260801c5b610100821615613766576ffcbe86c7900a88aedcffc83b479aa3a40260801c5b610200821615613786576ff987a7253ac413176f2b074cf7815e540260801c5b6104008216156137a6576ff3392b0822b70005940c7a398e4b70f30260801c5b6108008216156137c6576fe7159475a2c29b7443b29c7fa6e889d90260801c5b6110008216156137e6576fd097f3bdfd2022b8845ad8f792aa58250260801c5b612000821615613806576fa9f746462d870fdf8a65dc1f90e061e50260801c5b614000821615613826576f70d869a156d2a1b890bb3df62baf32f70260801c5b618000821615613846576f31be135f97d08fd981231505542fcfa60260801c5b62010000821615613867576f09aa508b5b7a84e1c677de54f3e99bc90260801c5b62020000821615613887576e5d6af8dedb81196699c329225ee6040260801c5b620400008216156138a6576d2216e584f5fa1ea926041bedfe980260801c5b620800008216156138c3576b048a170391f7dc42444e8fa20260801c5b60008460020b13156138de5780600019816138da57fe5b0490505b6401000000008106156138f25760016138f5565b60005b60ff16602082901c0192505050919050565b600080836001600160a01b0316856001600160a01b03161115613928579293925b846001600160a01b0316866001600160a01b0316116139535761394c858585613cbf565b9150613127565b836001600160a01b0316866001600160a01b0316101561398c57613978868585613cbf565b9150613985858785613d28565b9050613127565b613997858585613d28565b905094509492505050565b600082156122de576005546040805160a0810182528681523060208201528082018590526060810186905260006080820152905163c04b8d5960e01b81526001600160a01b039092169163c04b8d59916139fe91600401615025565b602060405180830381600087803b158015613a1857600080fd5b505af1158015613a2c573d6000803e3d6000fd5b505050506040513d601f19601f82011682018060405250810190613a5091906147d6565b949350505050565b604080516001600160a01b038416602482015260448082018490528251808303909101815260649091019091526020810180516001600160e01b031663a9059cbb60e01b1790526135d0908490613d6b565b6060613ab584613e1c565b613af05760405162461bcd60e51b81526004018080602001828103825260268152602001806153a06026913960400191505060405180910390fd5b600080856001600160a01b0316856040518082805190602001908083835b60208310613b2d5780518252601f199092019160209182019101613b0e565b6001836020036101000a038019825116818451168082178552505050505050905001915050600060405180830381855af49150503d8060008114613b8d576040519150601f19603f3d011682016040523d82523d6000602084013e613b92565b606091505b5091509150613ba2828286613e22565b9695505050505050565b801580613c32575060408051636eb1769f60e11b81523060048201526001600160a01b03848116602483015291519185169163dd62ed3e91604480820192602092909190829003018186803b158015613c0457600080fd5b505afa158015613c18573d6000803e3d6000fd5b505050506040513d6020811015613c2e57600080fd5b5051155b613c6d5760405162461bcd60e51b81526004018080602001828103825260368152602001806153f06036913960400191505060405180910390fd5b604080516001600160a01b038416602482015260448082018490528251808303909101815260649091019091526020810180516001600160e01b031663095ea7b360e01b1790526135d0908490613d6b565b6000826001600160a01b0316846001600160a01b03161115613cdf579192915b836001600160a01b0316613d18606060ff16846001600160801b0316901b8686036001600160a01b0316866001600160a01b0316613ec6565b81613d1f57fe5b04949350505050565b6000826001600160a01b0316846001600160a01b03161115613d48579192915b613a50826001600160801b03168585036001600160a01b0316600160601b613ec6565b6000613dc0826040518060400160405280602081526020017f5361666545524332303a206c6f772d6c6576656c2063616c6c206661696c6564815250856001600160a01b0316613f759092919063ffffffff16565b8051909150156135d057808060200190516020811015613ddf57600080fd5b50516135d05760405162461bcd60e51b815260040180806020018281038252602a8152602001806153c6602a913960400191505060405180910390fd5b3b151590565b60608315613e315750816122de565b825115613e415782518084602001fd5b8160405162461bcd60e51b81526004018080602001828103825283818151815260200191508051906020019080838360005b83811015613e8b578181015183820152602001613e73565b50505050905090810190601f168015613eb85780820380516001836020036101000a031916815260200191505b509250505060405180910390fd5b6000808060001985870986860292508281109083900303905080613efc5760008411613ef157600080fd5b5082900490506122de565b808411613f0857600080fd5b6000848688096000868103871696879004966002600389028118808a02820302808a02820302808a02820302808a02820302808a02820302808a02909103029181900381900460010186841190950394909402919094039290920491909117919091029150509392505050565b6060613a50848460008585613f8985613e1c565b613fda576040805162461bcd60e51b815260206004820152601d60248201527f416464726573733a2063616c6c20746f206e6f6e2d636f6e7472616374000000604482015290519081900360640190fd5b600080866001600160a01b031685876040518082805190602001908083835b602083106140185780518252601f199092019160209182019101613ff9565b6001836020036101000a03801982511681845116808217855250505050505090500191505060006040518083038185875af1925050503d806000811461407a576040519150601f19603f3d011682016040523d82523d6000602084013e61407f565b606091505b509150915061408f828286613e22565b979650505050505050565b604051806101a001604052806000815260200160008152602001600081526020016000815260200160008152602001600081526020016000815260200160006001600160a01b0316815260200160006001600160a01b0316815260200160006001600160a01b03168152602001600062ffffff168152602001600060020b8152602001600060020b81525090565b6040805161012081018252600080825260208201819052918101829052606081018290526080810182905260a0810182905260c0810182905260e0810182905261010081019190915290565b6040518060800160405280600081526020016000815260200160008152602001600081525090565b604051806101e0016040528060008152602001600081526020016000815260200160008152602001600060020b8152602001600060020b815260200160006001600160a01b0316815260200160006001600160a01b0316815260200160006001600160a01b03168152602001600081526020016000815260200160008152602001600015158152602001600015158152602001600081525090565b805161174481615296565b600082601f830112614252578081fd5b8151602061426761426283615279565b615256565b8281528181019085830183850287018401881015614283578586fd5b855b858110156142aa57815161429881615296565b84529284019290840190600101614285565b5090979650505050505050565b8051611744816152bc565b6000608082840312156142d3578081fd5b50919050565b8051611744816152cb565b805161ffff8116811461174457600080fd5b8051611744816152e0565b80356001600160401b038116811461174457600080fd5b600060208284031215614329578081fd5b81356122de81615296565b600060208284031215614345578081fd5b81516122de81615296565b60008060408385031215614362578081fd5b823561436d81615296565b9150602083013561437d81615296565b809150509250929050565b60008060006060848603121561439c578081fd5b83356143a781615296565b925060208401356143b781615296565b929592945050506040919091013590565b6000806000806000608086880312156143df578283fd5b85356143ea81615296565b945060208601356143fa81615296565b93506040860135925060608601356001600160401b038082111561441c578283fd5b818801915088601f83011261442f578283fd5b81358181111561443d578384fd5b89602082850101111561444e578384fd5b9699959850939650602001949392505050565b60008060408385031215614473578182fd5b823561447e81615296565b946020939093013593505050565b6000806020838503121561449e578182fd5b82356001600160401b03808211156144b4578384fd5b818501915085601f8301126144c7578384fd5b8135818111156144d5578485fd5b86602080830285010111156144e8578485fd5b60209290920196919550909350505050565b6000806040838503121561450c578182fd5b82516001600160401b0380821115614522578384fd5b818501915085601f830112614535578384fd5b8151602061454561426283615279565b82815281810190858301838502870184018b1015614561578889fd5b8896505b848710156145915780518060060b811461457d57898afd5b835260019690960195918301918301614565565b50918801519196509093505050808211156145aa578283fd5b506145b785828601614242565b9150509250929050565b6000602082840312156145d2578081fd5b81516122de816152ae565b6000602082840312156145ee578081fd5b81356122de816152bc565b600060a0828403121561460a578081fd5b60405160a081018181106001600160401b038211171561462657fe5b6040528235815260208301356003811061463e578283fd5b60208201526040830135614651816152ae565b60408201526060830135614664816152ae565b60608201526080928301359281019290925250919050565b60006080828403121561468d578081fd5b6122de83836142c2565b600060c082840312156142d3578081fd5b600061012082840312156142d3578081fd5b6000602082840312156146cb578081fd5b81356122de816152cb565b6000806000606084860312156146ea578081fd5b83516146f5816152cb565b602085015160409095015190969495509392505050565b600080600080600080600060e0888a031215614726578485fd5b875161473181615296565b6020890151909750614742816152bc565b9550614750604089016142e4565b945061475e606089016142e4565b935061476c608089016142e4565b925060a088015160ff81168114614781578283fd5b60c0890151909250614792816152ae565b8091505092959891949750929550565b6000602082840312156147b3578081fd5b81356122de816152e0565b6000602082840312156147cf578081fd5b5035919050565b6000602082840312156147e7578081fd5b5051919050565b60008060008060808587031215614803578182fd5b8435935060208086013561481681615296565b93506040860135614826816152ae565b925060608601356001600160401b0380821115614841578384fd5b818801915088601f830112614854578384fd5b81358181111561486057fe5b614872601f8201601f19168501615256565b91508082528984828501011115614887578485fd5b8084840185840137810190920192909252939692955090935050565b600080600080608085870312156148b8578182fd5b8451935060208501516148ca816152cb565b6040860151606090960151949790965092505050565b600080604083850312156148f2578182fd5b505080516020909101519092909150565b600060208284031215614914578081fd5b813563ffffffff811681146122de578182fd5b60008060408385031215614939578182fd5b61494283614301565b915061495060208401614301565b90509250929050565b6000806000806000806000806000806000806101808d8f03121561497b578586fd5b8c516bffffffffffffffffffffffff81168114614996578687fd5b9b506149a460208e01614237565b9a506149b260408e01614237565b99506149c060608e01614237565b98506149ce60808e016142f6565b97506149dc60a08e016142b7565b96506149ea60c08e016142b7565b95506149f860e08e016142d9565b94506101008d015193506101208d01519250614a176101408e016142d9565b9150614a266101608e016142d9565b90509295989b509295989b509295989b565b6001600160a01b03169052565b60008151808452815b81811015614a6a57602081850181015186830182015201614a4e565b81811115614a7b5782602083870101525b50601f01601f19169290920160200192915050565b60020b9052565b62ffffff169052565b606093841b6bffffffffffffffffffffffff19908116825260e89390931b6001600160e81b0319166014820152921b166017820152602b0190565b90565b6001600160a01b0391909116815260200190565b6001600160a01b039485168152928416602084015292166040820152606081019190915260800190565b6001600160a01b039384168152919092166020820152604081019190915260600190565b6001600160a01b039889168152602081019790975260408701959095526060860193909352608085019190915260a0840152831660c083015290911660e08201526101000190565b6001600160a01b0392909216825263ffffffff16602082015260400190565b6001600160a01b039390931683526001600160401b03918216602084015216604082015260600190565b6001600160a01b0392831681529116602082015260400190565b6001600160a01b03938416815291909216602082015262ffffff909116604082015260600190565b6001600160a01b0385811682528416602082015260408101839052608060608201819052600090613ba290830184614a45565b6001600160a01b03929092168252602082015260400190565b6000602080830181845280855180835260408601915060408482028701019250838701855b82811015614cb257603f19888603018452614ca0858351614a45565b94509285019290850190600101614c84565b5092979650505050505050565b6020808252825182820181905260009190848201906040850190845b81811015614cfd57835163ffffffff1683529284019291840191600101614cdb565b50909695505050505050565b6001600160e01b031991909116815260200190565b6020808252600d908201526c3737903bb2ba34103a37b5b2b760991b604082015260600190565b6020808252818101527f636f6d706f756e646572426f6e75735836343e746f74616c426f6e7573583634604082015260600190565b6020808252600e908201526d616d6f756e743e62616c616e636560901b604082015260600190565b6020808252600a908201526921756e69763320706f7360b01b604082015260600190565b6020808252600e908201526d0f9d1bdd185b109bdb9d5cd60d8d60921b604082015260600190565b6020808252600d908201526c195d1a081ddc985c0819985a5b609a1b604082015260600190565b60208082526010908201526f191958591b1a5b994f985b1b1bddd95960821b604082015260600190565b6020808252600e908201526d746f6b656e303d3d746f6b656e3160901b604082015260600190565b602080825260099082015268383934b1b29032b93960b91b604082015260600190565b6020808252601590820152741b585e081c1bdcda5d1a5bdb9cc81c995858da1959605a1b604082015260600190565b602080825260089082015267746f3d3d7468697360c01b604082015260600190565b60208082526006908201526508599bdd5b9960d21b604082015260600190565b60208082526006908201526510b7bbb732b960d11b604082015260600190565b6020808252600990820152680616d6f756e743d3d360bc1b604082015260600190565b81358152608081016020830135614f5481615296565b6001600160a01b031660208301526040830135614f70816152cb565b6001600160801b039081166040840152606084013590614f8f826152cb565b8082166060850152505092915050565b815181526020808301516001600160a01b0316908201526040808301516001600160801b0390811691830191909152606092830151169181019190915260800190565b600060a082019050825182526001600160801b03602084015116602083015260408301516040830152606083015160608301526080830151608083015292915050565b600060208252825160a0602084015261504160c0840182614a45565b905060018060a01b0360208501511660408401526040840151606084015260608401516080840152608084015160a08401528091505092915050565b600060c082019050825182526020830151602083015260408301516040830152606083015160608301526080830151608083015260a083015160a083015292915050565b6000610160820190506150d5828451614a38565b60208301516150e76020840182614a38565b5060408301516150fa6040840182614a97565b50606083015161510d6060840182614a90565b5060808301516151206080840182614a90565b5060a083015160a083015260c083015160c083015260e083015160e08301526101008084015181840152506101208084015161515e82850182614a38565b505061014092830151919092015290565b6001600160801b039390931683526020830191909152604082015260600190565b90815260200190565b9384526001600160801b039290921660208401526040830152606082015260800190565b918252602082015260400190565b93845260208401929092526040830152606082015260800190565b63ffffffff91909116815260200190565b6001600160401b0391909116815260200190565b6000808335601e19843603018112615221578283fd5b8301803591506001600160401b0382111561523a578283fd5b60200191503681900382131561524f57600080fd5b9250929050565b6040518181016001600160401b038111828210171561527157fe5b604052919050565b60006001600160401b0382111561528c57fe5b5060209081020190565b6001600160a01b03811681146152ab57600080fd5b50565b80151581146152ab57600080fd5b8060020b81146152ab57600080fd5b6001600160801b03811681146152ab57600080fd5b62ffffff811681146152ab57600080fdfe5265656e7472616e637947756172643a207265656e7472616e742063616c6c004f776e61626c653a206e6577206f776e657220697320746865207a65726f2061646472657373536166654d6174683a206d756c7469706c69636174696f6e206f766572666c6f774f776e61626c653a2063616c6c6572206973206e6f7420746865206f776e6572416464726573733a206c6f772d6c6576656c2064656c65676174652063616c6c206661696c6564416464726573733a2064656c65676174652063616c6c20746f206e6f6e2d636f6e74726163745361666545524332303a204552433230206f7065726174696f6e20646964206e6f7420737563636565645361666545524332303a20617070726f76652066726f6d206e6f6e2d7a65726f20746f206e6f6e2d7a65726f20616c6c6f77616e6365a26469706673582212203155098ccf98f17b058a5c306952a72ef739ba7244a1ccd70c8ac7a208e7d18164736f6c63430007060033",
  "linkReferences": {},
  "deployedLinkReferences": {}
}