{
  "_format": "hh-sol-artifact-1",
  "contractName": "Contract",
  "sourceName": "contracts/Contract.sol",
  "abi": [
    {
      "inputs": [
        {
          "internalType": "address",
          "name": "_weth",
          "type": "address"
        },
        {
          "internalType": "contract IUniswapV3Factory",
          "name": "_factory",
          "type": "address"
        },
        {
          "internalType": "contract INonfungiblePositionManager",
          "name": "_nonfungiblePositionManager",
          "type": "address"
        },
        {
          "internalType": "contract ISwapRouter",
          "name": "_swapRouter",
          "type": "address"
        }
      ],
      "stateMutability": "nonpayable",
      "type": "constructor"
    },
    {
      "anonymous": false,
      "inputs": [
        {
          "indexed": false,
          "internalType": "address",
          "name": "account",
          "type": "address"
        },
        {
          "indexed": false,
          "internalType": "uint256",
          "name": "tokenId",
          "type": "uint256"
        },
        {
          "indexed": false,
          "internalType": "uint256",
          "name": "amountAdded0",
          "type": "uint256"
        },
        {
          "indexed": false,
          "internalType": "uint256",
          "name": "amountAdded1",
          "type": "uint256"
        },
        {
          "indexed": false,
          "internalType": "uint256",
          "name": "bonus0",
          "type": "uint256"
        },
        {
          "indexed": false,
          "internalType": "uint256",
          "name": "bonus1",
          "type": "uint256"
        }
      ],
      "name": "AutoCompounded",
      "type": "event"
    },
    {
      "anonymous": false,
      "inputs": [
        {
          "indexed": false,
          "internalType": "address",
          "name": "account",
          "type": "address"
        },
        {
          "indexed": false,
          "internalType": "address",
          "name": "token",
          "type": "address"
        },
        {
          "indexed": false,
          "internalType": "address",
          "name": "to",
          "type": "address"
        },
        {
          "indexed": false,
          "internalType": "uint256",
          "name": "amount",
          "type": "uint256"
        }
      ],
      "name": "BalanceWithdrawn",
      "type": "event"
    },
    {
      "anonymous": false,
      "inputs": [
        {
          "indexed": false,
          "internalType": "address",
          "name": "account",
          "type": "address"
        },
        {
          "indexed": false,
          "internalType": "uint64",
          "name": "totalBonusX64",
          "type": "uint64"
        },
        {
          "indexed": false,
          "internalType": "uint64",
          "name": "compounderBonusX64",
          "type": "uint64"
        }
      ],
      "name": "BonusUpdated",
      "type": "event"
    },
    {
      "anonymous": false,
      "inputs": [
        {
          "indexed": false,
          "internalType": "address",
          "name": "account",
          "type": "address"
        },
        {
          "indexed": false,
          "internalType": "uint32",
          "name": "maxTWAPTickDifference",
          "type": "uint32"
        }
      ],
      "name": "MaxTWAPTickDifferenceUpdated",
      "type": "event"
    },
    {
      "anonymous": false,
      "inputs": [
        {
          "indexed": true,
          "internalType": "address",
          "name": "previousOwner",
          "type": "address"
        },
        {
          "indexed": true,
          "internalType": "address",
          "name": "newOwner",
          "type": "address"
        }
      ],
      "name": "OwnershipTransferred",
      "type": "event"
    },
    {
      "anonymous": false,
      "inputs": [
        {
          "indexed": false,
          "internalType": "address",
          "name": "account",
          "type": "address"
        },
        {
          "indexed": false,
          "internalType": "uint256",
          "name": "tokenId",
          "type": "uint256"
        }
      ],
      "name": "TokenDeposited",
      "type": "event"
    },
    {
      "anonymous": false,
      "inputs": [
        {
          "indexed": false,
          "internalType": "address",
          "name": "account",
          "type": "address"
        },
        {
          "indexed": false,
          "internalType": "address",
          "name": "to",
          "type": "address"
        },
        {
          "indexed": false,
          "internalType": "uint256",
          "name": "tokenId",
          "type": "uint256"
        }
      ],
      "name": "TokenWithdrawn",
      "type": "event"
    },
    {
      "inputs": [],
      "name": "MAX_BONUS_X64",
      "outputs": [
        {
          "internalType": "uint64",
          "name": "",
          "type": "uint64"
        }
      ],
      "stateMutability": "view",
      "type": "function"
    },
    {
      "inputs": [],
      "name": "MAX_DEADLINE_IN_FUTURE",
      "outputs": [
        {
          "internalType": "uint32",
          "name": "",
          "type": "uint32"
        }
      ],
      "stateMutability": "view",
      "type": "function"
    },
    {
      "inputs": [],
      "name": "MAX_POSITIONS_PER_ADDRESS",
      "outputs": [
        {
          "internalType": "uint32",
          "name": "",
          "type": "uint32"
        }
      ],
      "stateMutability": "view",
      "type": "function"
    },
    {
      "inputs": [
        {
          "internalType": "address",
          "name": "",
          "type": "address"
        },
        {
          "internalType": "address",
          "name": "",
          "type": "address"
        }
      ],
      "name": "accountBalances",
      "outputs": [
        {
          "internalType": "uint256",
          "name": "",
          "type": "uint256"
        }
      ],
      "stateMutability": "view",
      "type": "function"
    },
    {
      "inputs": [
        {
          "internalType": "address",
          "name": "",
          "type": "address"
        },
        {
          "internalType": "uint256",
          "name": "",
          "type": "uint256"
        }
      ],
      "name": "accountTokens",
      "outputs": [
        {
          "internalType": "uint256",
          "name": "",
          "type": "uint256"
        }
      ],
      "stateMutability": "view",
      "type": "function"
    },
    {
      "inputs": [
        {
          "components": [
            {
              "internalType": "uint256",
              "name": "tokenId",
              "type": "uint256"
            },
            {
              "internalType": "enum IContract.BonusConversion",
              "name": "bonusConversion",
              "type": "uint8"
            },
            {
              "internalType": "bool",
              "name": "withdrawBonus",
              "type": "bool"
            },
            {
              "internalType": "bool",
              "name": "doSwap",
              "type": "bool"
            },
            {
              "internalType": "uint256",
              "name": "deadline",
              "type": "uint256"
            }
          ],
          "internalType": "struct IContract.AutoCompoundParams",
          "name": "params",
          "type": "tuple"
        }
      ],
      "name": "autoCompound",
      "outputs": [
        {
          "internalType": "uint256",
          "name": "bonus0",
          "type": "uint256"
        },
        {
          "internalType": "uint256",
          "name": "bonus1",
          "type": "uint256"
        },
        {
          "internalType": "uint256",
          "name": "compounded0",
          "type": "uint256"
        },
        {
          "internalType": "uint256",
          "name": "compounded1",
          "type": "uint256"
        }
      ],
      "stateMutability": "nonpayable",
      "type": "function"
    },
    {
      "inputs": [
        {
          "internalType": "address",
          "name": "account",
          "type": "address"
        }
      ],
      "name": "balanceOf",
      "outputs": [
        {
          "internalType": "uint256",
          "name": "balance",
          "type": "uint256"
        }
      ],
      "stateMutability": "view",
      "type": "function"
    },
    {
      "inputs": [
        {
          "components": [
            {
              "internalType": "uint256",
              "name": "tokenId",
              "type": "uint256"
            },
            {
              "internalType": "address",
              "name": "recipient",
              "type": "address"
            },
            {
              "internalType": "uint128",
              "name": "amount0Max",
              "type": "uint128"
            },
            {
              "internalType": "uint128",
              "name": "amount1Max",
              "type": "uint128"
            }
          ],
          "internalType": "struct INonfungiblePositionManager.CollectParams",
          "name": "params",
          "type": "tuple"
        }
      ],
      "name": "collect",
      "outputs": [
        {
          "internalType": "uint256",
          "name": "amount0",
          "type": "uint256"
        },
        {
          "internalType": "uint256",
          "name": "amount1",
          "type": "uint256"
        }
      ],
      "stateMutability": "payable",
      "type": "function"
    },
    {
      "inputs": [],
      "name": "compounderBonusX64",
      "outputs": [
        {
          "internalType": "uint64",
          "name": "",
          "type": "uint64"
        }
      ],
      "stateMutability": "view",
      "type": "function"
    },
    {
      "inputs": [
        {
          "components": [
            {
              "internalType": "uint256",
              "name": "tokenId",
              "type": "uint256"
            },
            {
              "internalType": "uint128",
              "name": "liquidity",
              "type": "uint128"
            },
            {
              "internalType": "uint256",
              "name": "amount0Min",
              "type": "uint256"
            },
            {
              "internalType": "uint256",
              "name": "amount1Min",
              "type": "uint256"
            },
            {
              "internalType": "uint256",
              "name": "deadline",
              "type": "uint256"
            },
            {
              "internalType": "address",
              "name": "recipient",
              "type": "address"
            }
          ],
          "internalType": "struct IContract.DecreaseLiquidityAndCollectParams",
          "name": "params",
          "type": "tuple"
        }
      ],
      "name": "decreaseLiquidityAndCollect",
      "outputs": [
        {
          "internalType": "uint256",
          "name": "amount0",
          "type": "uint256"
        },
        {
          "internalType": "uint256",
          "name": "amount1",
          "type": "uint256"
        }
      ],
      "stateMutability": "payable",
      "type": "function"
    },
    {
      "inputs": [],
      "name": "factory",
      "outputs": [
        {
          "internalType": "contract IUniswapV3Factory",
          "name": "",
          "type": "address"
        }
      ],
      "stateMutability": "view",
      "type": "function"
    },
    {
      "inputs": [],
      "name": "maxTWAPTickDifference",
      "outputs": [
        {
          "internalType": "uint32",
          "name": "",
          "type": "uint32"
        }
      ],
      "stateMutability": "view",
      "type": "function"
    },
    {
      "inputs": [
        {
          "internalType": "bytes[]",
          "name": "data",
          "type": "bytes[]"
        }
      ],
      "name": "multicall",
      "outputs": [
        {
          "internalType": "bytes[]",
          "name": "results",
          "type": "bytes[]"
        }
      ],
      "stateMutability": "nonpayable",
      "type": "function"
    },
    {
      "inputs": [],
      "name": "nonfungiblePositionManager",
      "outputs": [
        {
          "internalType": "contract INonfungiblePositionManager",
          "name": "",
          "type": "address"
        }
      ],
      "stateMutability": "view",
      "type": "function"
    },
    {
      "inputs": [
        {
          "internalType": "address",
          "name": "",
          "type": "address"
        },
        {
          "internalType": "address",
          "name": "from",
          "type": "address"
        },
        {
          "internalType": "uint256",
          "name": "tokenId",
          "type": "uint256"
        },
        {
          "internalType": "bytes",
          "name": "",
          "type": "bytes"
        }
      ],
      "name": "onERC721Received",
      "outputs": [
        {
          "internalType": "bytes4",
          "name": "",
          "type": "bytes4"
        }
      ],
      "stateMutability": "nonpayable",
      "type": "function"
    },
    {
      "inputs": [],
      "name": "owner",
      "outputs": [
        {
          "internalType": "address",
          "name": "",
          "type": "address"
        }
      ],
      "stateMutability": "view",
      "type": "function"
    },
    {
      "inputs": [
        {
          "internalType": "uint256",
          "name": "",
          "type": "uint256"
        }
      ],
      "name": "ownerOf",
      "outputs": [
        {
          "internalType": "address",
          "name": "",
          "type": "address"
        }
      ],
      "stateMutability": "view",
      "type": "function"
    },
    {
      "inputs": [],
      "name": "renounceOwnership",
      "outputs": [],
      "stateMutability": "nonpayable",
      "type": "function"
    },
    {
      "inputs": [
        {
          "internalType": "uint64",
          "name": "_totalBonusX64",
          "type": "uint64"
        },
        {
          "internalType": "uint64",
          "name": "_compounderBonusX64",
          "type": "uint64"
        }
      ],
      "name": "setBonus",
      "outputs": [],
      "stateMutability": "nonpayable",
      "type": "function"
    },
    {
      "inputs": [
        {
          "internalType": "uint32",
          "name": "_maxTWAPTickDifference",
          "type": "uint32"
        }
      ],
      "name": "setMaxTWAPTickDifference",
      "outputs": [],
      "stateMutability": "nonpayable",
      "type": "function"
    },
    {
      "inputs": [
        {
          "components": [
            {
              "internalType": "uint256",
              "name": "tokenId",
              "type": "uint256"
            },
            {
              "internalType": "uint256",
              "name": "amount0",
              "type": "uint256"
            },
            {
              "internalType": "uint256",
              "name": "amount1",
              "type": "uint256"
            },
            {
              "internalType": "uint256",
              "name": "deadline",
              "type": "uint256"
            }
          ],
          "internalType": "struct IContract.SwapAndIncreaseLiquidityParams",
          "name": "params",
          "type": "tuple"
        }
      ],
      "name": "swapAndIncreaseLiquidity",
      "outputs": [
        {
          "internalType": "uint128",
          "name": "liquidity",
          "type": "uint128"
        },
        {
          "internalType": "uint256",
          "name": "amount0",
          "type": "uint256"
        },
        {
          "internalType": "uint256",
          "name": "amount1",
          "type": "uint256"
        }
      ],
      "stateMutability": "payable",
      "type": "function"
    },
    {
      "inputs": [
        {
          "components": [
            {
              "internalType": "address",
              "name": "token0",
              "type": "address"
            },
            {
              "internalType": "address",
              "name": "token1",
              "type": "address"
            },
            {
              "internalType": "uint24",
              "name": "fee",
              "type": "uint24"
            },
            {
              "internalType": "int24",
              "name": "tickLower",
              "type": "int24"
            },
            {
              "internalType": "int24",
              "name": "tickUpper",
              "type": "int24"
            },
            {
              "internalType": "uint256",
              "name": "amount0",
              "type": "uint256"
            },
            {
              "internalType": "uint256",
              "name": "amount1",
              "type": "uint256"
            },
            {
              "internalType": "address",
              "name": "recipient",
              "type": "address"
            },
            {
              "internalType": "uint256",
              "name": "deadline",
              "type": "uint256"
            }
          ],
          "internalType": "struct IContract.SwapAndMintParams",
          "name": "params",
          "type": "tuple"
        }
      ],
      "name": "swapAndMint",
      "outputs": [
        {
          "internalType": "uint256",
          "name": "tokenId",
          "type": "uint256"
        },
        {
          "internalType": "uint128",
          "name": "liquidity",
          "type": "uint128"
        },
        {
          "internalType": "uint256",
          "name": "amount0",
          "type": "uint256"
        },
        {
          "internalType": "uint256",
          "name": "amount1",
          "type": "uint256"
        }
      ],
      "stateMutability": "payable",
      "type": "function"
    },
    {
      "inputs": [],
      "name": "swapRouter",
      "outputs": [
        {
          "internalType": "contract ISwapRouter",
          "name": "",
          "type": "address"
        }
      ],
      "stateMutability": "view",
      "type": "function"
    },
    {
      "inputs": [],
      "name": "totalBonusX64",
      "outputs": [
        {
          "internalType": "uint64",
          "name": "",
          "type": "uint64"
        }
      ],
      "stateMutability": "view",
      "type": "function"
    },
    {
      "inputs": [
        {
          "internalType": "address",
          "name": "newOwner",
          "type": "address"
        }
      ],
      "name": "transferOwnership",
      "outputs": [],
      "stateMutability": "nonpayable",
      "type": "function"
    },
    {
      "inputs": [],
      "name": "weth",
      "outputs": [
        {
          "internalType": "address",
          "name": "",
          "type": "address"
        }
      ],
      "stateMutability": "view",
      "type": "function"
    },
    {
      "inputs": [
        {
          "internalType": "address",
          "name": "token",
          "type": "address"
        },
        {
          "internalType": "address",
          "name": "to",
          "type": "address"
        },
        {
          "internalType": "uint256",
          "name": "amount",
          "type": "uint256"
        }
      ],
      "name": "withdrawBalance",
      "outputs": [],
      "stateMutability": "nonpayable",
      "type": "function"
    },
    {
      "inputs": [
        {
          "internalType": "uint256",
          "name": "tokenId",
          "type": "uint256"
        },
        {
          "internalType": "address",
          "name": "to",
          "type": "address"
        },
        {
          "internalType": "bytes",
          "name": "data",
          "type": "bytes"
        },
        {
          "internalType": "bool",
          "name": "withdrawBalances",
          "type": "bool"
        }
      ],
      "name": "withdrawToken",
      "outputs": [],
      "stateMutability": "nonpayable",
      "type": "function"
    }
  ],
  "bytecode": "0x608060405260018054600160a01b600160e01b03191666a3d70a3d70a3d760a31b179055600267051eb851eb851eb8600280546001600160401b031916929091046001600160401b03169190911763ffffffff60401b1916686400000000000000001790553480156200007157600080fd5b50604051620057663803806200576683398101604081905262000094916200015d565b60016000908155620000a562000159565b600180546001600160a01b0319166001600160a01b038316908117909155604051919250906000907f8be0079c531659141344cd1fd0a4f28419497f9722a3daafe3b4186f6b6457e0908290a350600280546001600160a01b039586166c01000000000000000000000000026001600160601b03909116179055600380549385166001600160a01b0319948516179055600480549285169284169290921790915560058054919093169116179055620001dd565b3390565b6000806000806080858703121562000173578384fd5b84516200018081620001c4565b60208601519094506200019381620001c4565b6040860151909350620001a681620001c4565b6060860151909250620001b981620001c4565b939692955090935050565b6001600160a01b0381168114620001da57600080fd5b50565b61557980620001ed6000396000f3fe6080604052600436106101b75760003560e01c80636352211e116100ec578063ac9650d81161008a578063c31c9c0711610064578063c31c9c07146104bd578063c45a0155146104d2578063f2fde38b146104e7578063fc6f786514610507576101b7565b8063ac9650d814610466578063acf5e73a14610493578063b44a2722146104a8576101b7565b8063715018a6116100c6578063715018a6146103f9578063727fe82b1461040e5780638da5cb5b1461042e57806396f77bdb14610443576101b7565b80636352211e146103a457806367751308146103c457806370a08231146103d9576101b7565b80632b73f3ae116101595780634948b6ff116101335780634948b6ff1461032d578063519e177b1461034f5780635a9ff33f1461036f5780636242da2f14610384576101b7565b80632b73f3ae146102ca5780633fc8cef3146102eb57806345d9a1ce1461030d576101b7565b806312ea21951161019557806312ea219514610236578063150b7a021461025857806329ecf85d146102855780632b51ca16146102b5576101b7565b80630c66bc6a146101bc5780630d334380146101de5780631242e5fd14610209575b600080fd5b3480156101c857600080fd5b506101dc6101d7366004614a31565b61051a565b005b3480156101ea57600080fd5b506101f3610672565b6040516102009190615304565b60405180910390f35b34801561021557600080fd5b5061022961022436600461445c565b610685565b60405161020091906152ae565b34801561024257600080fd5b5061024b6106a2565b6040516102009190615315565b34801561026457600080fd5b506102786102733660046144d4565b6106b1565b6040516102009190614dfe565b34801561029157600080fd5b506102a56102a0366004614705565b610784565b60405161020094939291906152e9565b3480156102c157600080fd5b506101f3611209565b6102dd6102d83660046147a3565b61120e565b6040516102009291906152db565b3480156102f757600080fd5b50610300611456565b6040516102009190614be8565b34801561031957600080fd5b506101dc610328366004614494565b61146c565b61034061033b366004614788565b61150f565b6040516102009392919061528d565b34801561035b57600080fd5b506101dc61036a366004614a0d565b611864565b34801561037b57600080fd5b5061024b611926565b34801561039057600080fd5b5061022961039f36600461456d565b611932565b3480156103b057600080fd5b506103006103bf3660046148ca565b611963565b3480156103d057600080fd5b506101f361197e565b3480156103e557600080fd5b506102296103f4366004614424565b611984565b34801561040557600080fd5b506101dc6119a3565b34801561041a57600080fd5b506101dc6104293660046148fa565b611a4f565b34801561043a57600080fd5b50610300611c54565b6104566104513660046147b4565b611c63565b60405161020094939291906152b7565b34801561047257600080fd5b50610486610481366004614598565b6120ff565b6040516102009190614d54565b34801561049f57600080fd5b5061024b6121dc565b3480156104b457600080fd5b506103006121f2565b3480156104c957600080fd5b50610300612201565b3480156104de57600080fd5b50610300612210565b3480156104f357600080fd5b506101dc610502366004614424565b61221f565b6102dd610515366004614788565b612322565b610522612436565b6001600160a01b0316610533611c54565b6001600160a01b03161461057c576040805162461bcd60e51b81526020600482018190526024820152600080516020615477833981519152604482015290519081900360640190fd5b6001546001600160401b03600160a01b909104811690831611156105bb5760405162461bcd60e51b81526004016105b290614ee4565b60405180910390fd5b816001600160401b0316816001600160401b031611156105ed5760405162461bcd60e51b81526004016105b290614e3a565b6001805467ffffffffffffffff60a01b1916600160a01b6001600160401b0385811691909102919091179091556002805467ffffffffffffffff19169183169190911790556040517f6bf5eac09393e139ddf7cf518865661d7035e774bfb280d4226cbe4ef0652ed79061066690339085908590614c9c565b60405180910390a15050565b600254600160401b900463ffffffff1681565b600860209081526000928352604080842090915290825290205481565b6002546001600160401b031681565b6000600260005414156106f9576040805162461bcd60e51b815260206004820152601f6024820152600080516020615410833981519152604482015290519081900360640190fd5b60026000556004546001600160a01b031633146107285760405162461bcd60e51b81526004016105b290614ec0565b6107348486600161243a565b7fbc7c8a4d8049a3f99a02f2a20640c206a2e4d3f2fa54fd20da9f01fda3620cda8585604051610765929190614d3b565b60405180910390a150630a85bd0160e11b600160005595945050505050565b600080600080600260005414156107d0576040805162461bcd60e51b815260206004820152601f6024820152600080516020615410833981519152604482015290519081900360640190fd5b6002600090815585518152600660205260409020546001600160a01b031661080a5760405162461bcd60e51b81526004016105b290614ff9565b6080850151426101f401116108315760405162461bcd60e51b81526004016105b290614f33565b610839614199565b6004805460408051608081018252895181523060208201526001600160801b038183018190526060820152905163fc6f786560e01b81526001600160a01b039092169263fc6f78659261088d9291016150bd565b6040805180830381600087803b1580156108a657600080fd5b505af11580156108ba573d6000803e3d6000fd5b505050506040513d601f19601f820116820180604052508101906108de91906149ea565b6020830152815260048054875160405163133f757160e31b81526001600160a01b03909216926399fbab88926109159291016152ae565b6101806040518083038186803b15801561092e57600080fd5b505afa158015610942573d6000803e3d6000fd5b505050506040513d601f19601f820116820180604052508101906109669190614a63565b5050505050600290810b810b61018089015290810b900b61016087015262ffffff166101408601526001600160a01b0390811661012086015290811661010085019081528951600090815260066020908152604080832054851660e089018190528352600882528083209351909416825291909152205483516109eb93509150612560565b815260e08101516001600160a01b03908116600090815260086020908152604080832061012086015190941683529281529190205490820151610a2d91612560565b60208201528051151580610a45575060008160200151115b156111985760006040518061016001604052808361010001516001600160a01b031681526020018361012001516001600160a01b0316815260200183610140015162ffffff16815260200183610160015160020b815260200183610180015160020b815260200183600001518152602001836020015181526020018860800151815260200188602001516002811115610ada57fe5b815260e08401516001600160a01b031633146020820152606089015115156040909101529050610b09816125c1565b60608701526040860181905260c08601919091526020850191909152908352151580610b39575060008260600151115b15610bfe57600480546040805160c0810182528a5181528582015160208201526060808701518284015260009082018190526080808301919091528b015160a0820152905163219f5d1760e01b81526001600160a01b039092169263219f5d1792610ba592910161519b565b606060405180830381600087803b158015610bbf57600080fd5b505af1158015610bd3573d6000803e3d6000fd5b505050506040513d601f19601f82011682018060405250810190610bf791906147e2565b9095509350505b60e08201516001600160a01b03163314610d9f57600087602001516002811115610c2457fe5b1415610c8f57600154610c5890600160401b90610c52908790600160a01b90046001600160401b0316612d98565b90612df1565b6080830152600154610c8590600160401b90610c52908690600160a01b90046001600160401b0316612d98565b60a0830152610d9f565b60c0820151600090610cb490610cad90610c5287600160601b612d98565b8690612560565b9050600188602001516002811115610cc857fe5b1415610d2957600154610cf690600160401b90610c52908490600160a01b90046001600160401b0316612d98565b60808401528251610d079086612e58565b83608001511115610d24578251610d1e9086612e58565b60808401525b610d9d565b60015460c0840151610d6991600160401b91610c5291600160a01b90046001600160401b031690610d6390600160601b9084908890612d98565b90612d98565b60a08401526020830151610d7d9085612e58565b8360a001511115610d9d576020830151610d979085612e58565b60a08401525b505b60808201518251610dbb9190610db59087612e58565b90612e58565b60e08301516001600160a01b03908116600090815260086020908152604080832061010088015190941683529281529190209190915560a083015190830151610e099190610db59086612e58565b60e0830180516001600160a01b039081166000908152600860209081526040808320610120890151851684529091529020929092555116331415610e54576000955060009450611196565b33610e5d611c54565b6001600160a01b03161415610f345760808201513360009081526008602090815260408083206101008701516001600160a01b03168452909152902054610ea391612560565b3360008181526008602081815260408084206101008901516001600160a01b0390811686528184528286209790975560a08901519585529282526101208801519095168352529190912054610ef791612560565b3360009081526008602090815260408083206101208701516001600160a01b03168452909152902055608082015160a08301519096509450611196565b60025460015460808401516001600160401b03928316600160a01b909204831691820392600092610f6d929091610c5291908616612d98565b60015460a0860151919250600091610f9d916001600160401b03600160a01b909104811691610c52918716612d98565b6080860151909150610faf9083612e58565b60a0860151909950610fc19082612e58565b3360009081526008602090815260408083206101008a01516001600160a01b03168452909152902054909850610ff7908a612560565b3360008181526008602081815260408084206101008c01516001600160a01b039081168652818452828620979097559484529181526101208a01519094168252919092529020546110489089612560565b3360009081526008602081815260408084206101208b01516001600160a01b031685529091528220929092556110b8918491611082611c54565b6001600160a01b039081168252602080830193909352604091820160009081206101008c01519092168152925290205490612560565b600860006110c4611c54565b6001600160a01b03166001600160a01b0316815260200190815260200160002060008761010001516001600160a01b03166001600160a01b03168152602001908152602001600020819055506111568160086000611120611c54565b6001600160a01b039081168252602080830193909352604091820160009081206101208c01519092168152925290205490612560565b60086000611162611c54565b6001600160a01b039081168252602080830193909352604091820160009081206101208b0151909216815292529020555050505b505b8560400151156111b7576111b781610100015182610120015133612eb5565b85516040517f04c97b19c75e62b07be4061fef49646c38cb7c44a4556b9ba4ac887545edb423916111f291339190879087908b908b90614c4a565b60405180910390a150600160005592949193509190565b606481565b60008060026000541415611257576040805162461bcd60e51b815260206004820152601f6024820152600080516020615410833981519152604482015290519081900360640190fd5b6002600090815583358152600660205260409020546001600160a01b031633146112935760405162461bcd60e51b81526004016105b290615019565b6004546040805160a081018252853581526001600160a01b0390921691630c49ccbe916020808301916112cb919089019089016147c6565b6001600160801b03168152602001866040013581526020018660600135815260200186608001358152506040518263ffffffff1660e01b81526004016113119190615100565b6040805180830381600087803b15801561132a57600080fd5b505af115801561133e573d6000803e3d6000fd5b505050506040513d601f19601f8201168201806040525081019061136291906149ea565b60408051608081019091528535815291935091506000906020810161138d60c0870160a08801614424565b6001600160a01b031681526020016113a485612f28565b6001600160801b031681526020016113bb84612f28565b6001600160801b031690526004805460405163fc6f786560e01b81529293506001600160a01b03169163fc6f7865916113f6918591016150bd565b6040805180830381600087803b15801561140f57600080fd5b505af1158015611423573d6000803e3d6000fd5b505050506040513d601f19601f8201168201806040525081019061144791906149ea565b50506001600055509092909150565b600254600160601b90046001600160a01b031681565b600260005414156114b2576040805162461bcd60e51b815260206004820152601f6024820152600080516020615410833981519152604482015290519081900360640190fd5b6002600055806114d45760405162461bcd60e51b81526004016105b290615039565b3360009081526008602090815260408083206001600160a01b038716845290915290205461150484848385612f3e565b505060016000555050565b60008060006002600054141561155a576040805162461bcd60e51b815260206004820152601f6024820152600080516020615410833981519152604482015290519081900360640190fd5b6002600055426101f4016060850135106115865760405162461bcd60e51b81526004016105b290614f33565b61158e614227565b6004805460405163133f757160e31b81526001600160a01b03909116916399fbab88916115be91893591016152ae565b6101806040518083038186803b1580156115d757600080fd5b505afa1580156115eb573d6000803e3d6000fd5b505050506040513d601f19601f8201168201806040525081019061160f9190614a63565b5050505050600290810b810b608089015290810b900b606087015262ffffff166040808701919091526001600160a01b03918216602080880182905292909316808752611666955093509089013590890135612ffe565b8260a0018360c00182815250828152505050600060405180610160016040528083600001516001600160a01b0316815260200183602001516001600160a01b03168152602001836040015162ffffff168152602001836060015160020b8152602001836080015160020b81526020018360a0015181526020018360c001518152602001876060013581526020016000600281111561170057fe5b8152600160208201819052604090910152905061171c816125c1565b505050610100840190815260e084019182526040805160c081018252893581529251602084015290518282015260006060808401829052608084019190915288013560a083015260048054915163219f5d1760e01b81526001600160a01b039092169163219f5d17916117919185910161519b565b606060405180830381600087803b1580156117ab57600080fd5b505af11580156117bf573d6000803e3d6000fd5b505050506040513d601f19601f820116820180604052508101906117e391906147e2565b60e086015192985090965094506117fa9086612e58565b33600090815260086020908152604080832087516001600160a01b0316845290915290205561010083015161182f9085612e58565b336000908152600860209081526040808320968201516001600160a01b03168352959052938420555050600190559193909250565b61186c612436565b6001600160a01b031661187d611c54565b6001600160a01b0316146118c6576040805162461bcd60e51b81526020600482018190526024820152600080516020615477833981519152604482015290519081900360640190fd5b600280546bffffffff00000000000000001916600160401b63ffffffff8416021790556040517fe076531897537575371a260e5d0ebf05a9367bda57fe2a3d0750398e2f3d6cfa9061191b9033908490614c7d565b60405180910390a150565b67051eb851eb851eb881565b6007602052816000526040600020818154811061194e57600080fd5b90600052602060002001600091509150505481565b6006602052600090815260409020546001600160a01b031681565b6101f481565b6001600160a01b0381166000908152600760205260409020545b919050565b6119ab612436565b6001600160a01b03166119bc611c54565b6001600160a01b031614611a05576040805162461bcd60e51b81526020600482018190526024820152600080516020615477833981519152604482015290519081900360640190fd5b6001546040516000916001600160a01b0316907f8be0079c531659141344cd1fd0a4f28419497f9722a3daafe3b4186f6b6457e0908390a3600180546001600160a01b0319169055565b60026000541415611a95576040805162461bcd60e51b815260206004820152601f6024820152600080516020615410833981519152604482015290519081900360640190fd5b60026000556001600160a01b038316301415611ac35760405162461bcd60e51b81526004016105b290614fd7565b6000848152600660205260409020546001600160a01b03163314611af95760405162461bcd60e51b81526004016105b290615019565b611b033385613236565b60048054604051635c46a7ef60e11b81526001600160a01b039091169163b88d4fde91611b3891309188918a91899101614d08565b600060405180830381600087803b158015611b5257600080fd5b505af1158015611b66573d6000803e3d6000fd5b505050507f8210728e7c071f615b840ee026032693858fbcd5e5359e67e438c890f59e5620338486604051611b9d93929190614c26565b60405180910390a18015611504576004805460405163133f757160e31b815260009283926001600160a01b0316916399fbab8891611bdd918a91016152ae565b6101806040518083038186803b158015611bf657600080fd5b505afa158015611c0a573d6000803e3d6000fd5b505050506040513d601f19601f82011682018060405250810190611c2e9190614a63565b5050505050505050935093505050611c47828287612eb5565b5050505060016000555050565b6001546001600160a01b031690565b60008060008060026000541415611caf576040805162461bcd60e51b815260206004820152601f6024820152600080516020615410833981519152604482015290519081900360640190fd5b6002600055426101f40161010086013510611cdc5760405162461bcd60e51b81526004016105b290614f33565b611cec6040860160208701614424565b6001600160a01b0316611d026020870187614424565b6001600160a01b03161415611d295760405162461bcd60e51b81526004016105b290614f5d565b611d31614273565b611d60611d416020880188614424565b611d516040890160208a01614424565b8860a001358960c00135612ffe565b6020808401919091529082526040805161016081019091526000918190611d89908a018a614424565b6001600160a01b03168152602001886020016020810190611daa9190614424565b6001600160a01b03168152602001611dc860608a0160408b016148ae565b62ffffff168152602001611de260808a0160608b016146e9565b60020b8152602001611dfa60a08a0160808b016146e9565b60020b8152835160208083019190915284015160408201526101008901356060820152608001600081526001602082018190526040909101529050611e3e816125c1565b50505060608401526040808401919091528051610160810190915260009080611e6a60208b018b614424565b6001600160a01b03168152602001896020016020810190611e8b9190614424565b6001600160a01b03168152602001611ea960608b0160408c016148ae565b62ffffff168152602001611ec360808b0160608c016146e9565b60020b8152602001611edb60a08b0160808c016146e9565b60020b8152604085810151602083015260608087015182840152600090830181905260808301523060a08301526101008b013560c090920191909152600480549151634418b22b60e11b81529293506001600160a01b0390911691638831645691611f48918591016151df565b608060405180830381600087803b158015611f6257600080fd5b505af1158015611f76573d6000803e3d6000fd5b505050506040513d601f19601f82011682018060405250810190611f9a91906149ad565b92995090975095509350611fc087611fb96101008b0160e08c01614424565b600061243a565b7fbc7c8a4d8049a3f99a02f2a20640c206a2e4d3f2fa54fd20da9f01fda3620cda611ff26101008a0160e08b01614424565b88604051612001929190614d3b565b60405180910390a160408301516120189086612e58565b6008600061202d6101008c0160e08d01614424565b6001600160a01b03168152602080820192909252604001600090812091612056908c018c614424565b6001600160a01b03168152602081019190915260400160002055606083015161207f9085612e58565b600860006120946101008c0160e08d01614424565b6001600160a01b03166001600160a01b0316815260200190815260200160002060008a60200160208101906120c99190614424565b6001600160a01b03166001600160a01b031681526020019081526020016000208190555050505060016000819055509193509193565b6060816001600160401b038111801561211757600080fd5b5060405190808252806020026020018201604052801561214b57816020015b60608152602001906001900390816121365790505b50905060005b828110156121d4576121b53085858481811061216957fe5b905060200281019061217b9190615329565b8080601f01602080910402602001604051908101604052809392919081815260200183838082843760009201919091525061337992505050565b8282815181106121c157fe5b6020908102919091010152600101612151565b505b92915050565b600154600160a01b90046001600160401b031681565b6004546001600160a01b031681565b6005546001600160a01b031681565b6003546001600160a01b031681565b612227612436565b6001600160a01b0316612238611c54565b6001600160a01b031614612281576040805162461bcd60e51b81526020600482018190526024820152600080516020615477833981519152604482015290519081900360640190fd5b6001600160a01b0381166122c65760405162461bcd60e51b81526004018080602001828103825260268152602001806154306026913960400191505060405180910390fd5b6001546040516001600160a01b038084169216907f8be0079c531659141344cd1fd0a4f28419497f9722a3daafe3b4186f6b6457e090600090a3600180546001600160a01b0319166001600160a01b0392909216919091179055565b6000806002600054141561236b576040805162461bcd60e51b815260206004820152601f6024820152600080516020615410833981519152604482015290519081900360640190fd5b6002600090815583358152600660205260409020546001600160a01b031633146123a75760405162461bcd60e51b81526004016105b290615019565b6004805460405163fc6f786560e01b81526001600160a01b039091169163fc6f7865916123d69187910161505c565b6040805180830381600087803b1580156123ef57600080fd5b505af1158015612403573d6000803e3d6000fd5b505050506040513d601f19601f8201168201806040525081019061242791906149ea565b60016000559094909350915050565b3390565b6001600160a01b0382166000908152600760205260409020546064116124725760405162461bcd60e51b81526004016105b290614fa8565b6004805460405163133f757160e31b815260009283926001600160a01b0316916399fbab88916124a4918991016152ae565b6101806040518083038186803b1580156124bd57600080fd5b505afa1580156124d1573d6000803e3d6000fd5b505050506040513d601f19601f820116820180604052508101906124f59190614a63565b5050505050505050935093505050821561251357612513828261339e565b5050506001600160a01b03166000818152600760209081526040808320805460018101825590845282842001859055938252600690529190912080546001600160a01b0319169091179055565b6000828201838110156125ba576040805162461bcd60e51b815260206004820152601b60248201527f536166654d6174683a206164646974696f6e206f766572666c6f770000000000604482015290519081900360640190fd5b9392505050565b60008060008060006125d161429b565b60a087015160c0880151600354895160208b01516040808d01519051630b4c774160e11b8152959b509399506000946001600160a01b0390931693631698ee829361262193929190600401614ce0565b60206040518083038186803b15801561263957600080fd5b505afa15801561264d573d6000803e3d6000fd5b505050506040513d601f19601f820116820180604052508101906126719190614440565b9050806001600160a01b0316633850c7bd6040518163ffffffff1660e01b815260040160e06040518083038186803b1580156126ac57600080fd5b505afa1580156126c0573d6000803e3d6000fd5b505050506040513d601f19601f820116820180604052508101906126e49190614818565b50505061ffff1660c08601819052600292830b90920b6080860152506001600160a01b0390911660e084015260011061272f5760405162461bcd60e51b81526004016105b290614e97565b61273881613526565b600290810b810b60a0840181905260808401519154612765929190600160401b900463ffffffff1661365e565b60e082015161278790600160601b90610c52906001600160a01b031680612d98565b6001549095506127c590600160401b90610c5290600160a01b90046001600160401b0316610d636127be8a848d600160601b612d98565b8c90612560565b6101c083015261014088015115612c42576127e388606001516136d4565b6001600160a01b03166101008301526080880151612800906136d4565b6001600160a01b0316610120830181905260e083015161010084015161282a92600160601b613a06565b60608401526040830181905261284f57610160820187905260016101a083015261296f565b606082015161287d5761286a85610c5288600160601b612d98565b61016083015260006101a083015261296f565b6060820151604083015161289a9190610c5290600160601b612d98565b6101408301526128ae87600160601b612d98565b6101408301516128be9088612d98565b106101a083018190521561292357610140820151612918906128f690600160601b906128f0908290610c52908b612d98565b90612560565b610140840151610c529061290a908a612d98565b610db58b600160601b612d98565b61016083015261296f565b6101408201516129689061294790600160601b906128f0908290610c52908b612d98565b610c526129588a600160601b612d98565b610140860151610db5908b612d98565b6101608301525b876101200151612b1e576001886101000151600281111561298c57fe5b1415612a56576101c082015182526101a0820151156129ff57816101c00151826101600151106129d6576101c08201516101608301516129cb91612e58565b6101608301526129fa565b6101608201516101c08301516129eb91612e58565b61016083015260006101a08301525b612a51565b6101c0820151610160830151612a1491612560565b610160830152612a2c85610c5288600160601b612d98565b8261016001511115612a5157612a4a85610c5288600160601b612d98565b6101608301525b612b1e565b60028861010001516002811115612a6957fe5b1415612b1e576101c0820151612a8990600160601b90610c529088612d98565b60208301526101a0820151612af157816101c0015182610160015110612ac9576101c0820151610160830151612abe91612e58565b610160830152612a51565b6101608201516101c0830151612ade91612e58565b61016083015260016101a0830152612b1e565b6101c0820151610160830151612b0691612560565b6101608301819052871015612b1e5761016082018790525b61016082015115612c3d57816101a0015115612ba7576000612b7989600001518a604001518b60200151604051602001612b5a93929190614baa565b6040516020818303038152906040528461016001518b60e00151613aa1565b9050612b9383610160015189612e5890919063ffffffff16565b9750612b9f8782612560565b965050612c3d565b610160820151612bc190600160601b90610c529088612d98565b610180830181905215612c3d576000612c1389602001518a604001518b60000151604051602001612bf493929190614baa565b6040516020818303038152906040528461018001518b60e00151613aa1565b9050612c1f8882612560565b9750612c3983610180015188612e5890919063ffffffff16565b9650505b612cab565b876101200151612cab5760018861010001516002811115612c5f57fe5b1415612c72576101c08201518252612cab565b60028861010001516002811115612c8557fe5b1415612cab576101c0820151612ca590600160601b90610c529088612d98565b60208301525b87610120015115612cc157869350859250612d8d565b60008861010001516002811115612cd457fe5b1415612d4a57600154612d0d90612cff90600160a01b90046001600160401b0316600160401b612560565b610c5289600160401b612d98565b600154909450612d4390612d3590600160a01b90046001600160401b0316600160401b612560565b610c5288600160401b612d98565b9250612d8d565b81518711612d59576000612d66565b8151612d66908890612e58565b935081602001518611612d7a576000612d8a565b6020820151612d8a908790612e58565b92505b505091939590929450565b600082612da7575060006121d6565b82820282848281612db457fe5b04146125ba5760405162461bcd60e51b81526004018080602001828103825260218152602001806154566021913960400191505060405180910390fd5b6000808211612e47576040805162461bcd60e51b815260206004820152601a60248201527f536166654d6174683a206469766973696f6e206279207a65726f000000000000604482015290519081900360640190fd5b818381612e5057fe5b049392505050565b600082821115612eaf576040805162461bcd60e51b815260206004820152601e60248201527f536166654d6174683a207375627472616374696f6e206f766572666c6f770000604482015290519081900360640190fd5b50900390565b3360009081526008602090815260408083206001600160a01b03871684529091529020548015612eeb57612eeb84838384612f3e565b3360009081526008602090815260408083206001600160a01b03871684529091529020548015612f2157612f2184848384612f3e565b5050505050565b806001600160801b038116811461199e57600080fd5b81811115612f5e5760405162461bcd60e51b81526004016105b290614e6f565b3360009081526008602090815260408083206001600160a01b0388168452909152902054612f8c9082612e58565b3360009081526008602090815260408083206001600160a01b0389168452909152902055612fbb848483613b57565b7fadd3a6320dd54346ddf0c55851727ae3d93433722e55d17a42451c6c0ae66f9b33858584604051612ff09493929190614bfc565b60405180910390a150505050565b60008034156130f357600254604051600091600160601b90046001600160a01b031690349061302c90614be5565b60006040518083038185875af1925050503d8060008114613069576040519150601f19603f3d011682016040523d82523d6000602084013e61306e565b606091505b505090508061308f5760405162461bcd60e51b81526004016105b290614f0c565b6002546001600160a01b03888116600160601b9092041614156130b4573492506130f1565b6002546001600160a01b03878116600160601b9092041614156130d9573491506130f1565b60405162461bcd60e51b81526004016105b290614e13565b505b8184111561318b576001600160a01b0386166323b872dd33306131168887612e58565b6040518463ffffffff1660e01b815260040161313493929190614c26565b602060405180830381600087803b15801561314e57600080fd5b505af1158015613162573d6000803e3d6000fd5b505050506040513d601f19601f8201168201806040525081019061318691906146cd565b508391505b80831115613223576001600160a01b0385166323b872dd33306131ae8786612e58565b6040518463ffffffff1660e01b81526004016131cc93929190614c26565b602060405180830381600087803b1580156131e657600080fd5b505af11580156131fa573d6000803e3d6000fd5b505050506040513d601f19601f8201168201806040525081019061321e91906146cd565b508290505b61322d868661339e565b94509492505050565b6001600160a01b03821660009081526007602090815260408083208054825181850281018501909352808352919290919083018282801561329657602002820191906000526020600020905b815481526020019060010190808311613282575b5050835193945083925060009150505b828110156132d957848482815181106132bb57fe5b602002602001015114156132d1578091506132d9565b6001016132a6565b508181106132e357fe5b6001600160a01b038516600090815260076020526040902080548190600019810190811061330d57fe5b906000526020600020015481838154811061332457fe5b90600052602060002001819055508080548061333c57fe5b60008281526020808220830160001990810183905590920190925595815260069095525050604090922080546001600160a01b0319169055505050565b60606125ba838360405180606001604052806027815260200161549760279139613ba9565b60048054604051636eb1769f60e11b81526000926001600160a01b038681169363dd62ed3e936133d49330939092169101614cc6565b60206040518083038186803b1580156133ec57600080fd5b505afa158015613400573d6000803e3d6000fd5b505050506040513d601f19601f8201168201806040525081019061342491906148e2565b90508061345f576004546134459084906001600160a01b0316600019613cab565b60055461345f9084906001600160a01b0316600019613cab565b60048054604051636eb1769f60e11b81526000926001600160a01b038681169363dd62ed3e936134959330939092169101614cc6565b60206040518083038186803b1580156134ad57600080fd5b505afa1580156134c1573d6000803e3d6000fd5b505050506040513d601f19601f820116820180604052508101906134e591906148e2565b905080613520576004546135069084906001600160a01b0316600019613cab565b6005546135209084906001600160a01b0316600019613cab565b50505050565b6040805160028082526060820183526000928392919060208301908036833701905050905060008160008151811061355a57fe5b602002602001019063ffffffff16908163ffffffff1681525050603c8160018151811061358357fe5b63ffffffff9092166020928302919091019091015260405163883bdbfd60e01b81526000906001600160a01b0385169063883bdbfd906135c7908590600401614db4565b60006040518083038186803b1580156135df57600080fd5b505afa1580156135f3573d6000803e3d6000fd5b505050506040513d6000823e601f3d908101601f1916820160405261361b9190810190614606565b509050603c8160018151811061362d57fe5b60200260200101518260008151811061364257fe5b60200260200101510360060b8161365557fe5b05949350505050565b8260020b8260020b13801561368557508063ffffffff1683830360020b65ffffffffffff16105b806136b357508260020b8260020b131580156136b357508063ffffffff1682840360020b65ffffffffffff16105b6136cf5760405162461bcd60e51b81526004016105b290614f85565b505050565b60008060008360020b126136eb578260020b6136f3565b8260020b6000035b9050620d89e8811115613731576040805162461bcd60e51b81526020600482015260016024820152601560fa1b604482015290519081900360640190fd5b60006001821661374557600160801b613757565b6ffffcb933bd6fad37aa2d162d1a5940015b70ffffffffffffffffffffffffffffffffff169050600282161561378b576ffff97272373d413259a46990580e213a0260801c5b60048216156137aa576ffff2e50f5f656932ef12357cf3c7fdcc0260801c5b60088216156137c9576fffe5caca7e10e4e61c3624eaa0941cd00260801c5b60108216156137e8576fffcb9843d60f6159c9db58835c9266440260801c5b6020821615613807576fff973b41fa98c081472e6896dfb254c00260801c5b6040821615613826576fff2ea16466c96a3843ec78b326b528610260801c5b6080821615613845576ffe5dee046a99a2a811c461f1969c30530260801c5b610100821615613865576ffcbe86c7900a88aedcffc83b479aa3a40260801c5b610200821615613885576ff987a7253ac413176f2b074cf7815e540260801c5b6104008216156138a5576ff3392b0822b70005940c7a398e4b70f30260801c5b6108008216156138c5576fe7159475a2c29b7443b29c7fa6e889d90260801c5b6110008216156138e5576fd097f3bdfd2022b8845ad8f792aa58250260801c5b612000821615613905576fa9f746462d870fdf8a65dc1f90e061e50260801c5b614000821615613925576f70d869a156d2a1b890bb3df62baf32f70260801c5b618000821615613945576f31be135f97d08fd981231505542fcfa60260801c5b62010000821615613966576f09aa508b5b7a84e1c677de54f3e99bc90260801c5b62020000821615613986576e5d6af8dedb81196699c329225ee6040260801c5b620400008216156139a5576d2216e584f5fa1ea926041bedfe980260801c5b620800008216156139c2576b048a170391f7dc42444e8fa20260801c5b60008460020b13156139dd5780600019816139d957fe5b0490505b6401000000008106156139f15760016139f4565b60005b60ff16602082901c0192505050919050565b600080836001600160a01b0316856001600160a01b03161115613a27579293925b846001600160a01b0316866001600160a01b031611613a5257613a4b858585613dbe565b915061322d565b836001600160a01b0316866001600160a01b03161015613a8b57613a77868585613dbe565b9150613a84858785613e27565b905061322d565b613a96858585613e27565b905094509492505050565b600082156125ba576005546040805160a0810182528681523060208201528082018590526060810186905260006080820152905163c04b8d5960e01b81526001600160a01b039092169163c04b8d5991613afd91600401615143565b602060405180830381600087803b158015613b1757600080fd5b505af1158015613b2b573d6000803e3d6000fd5b505050506040513d601f19601f82011682018060405250810190613b4f91906148e2565b949350505050565b604080516001600160a01b038416602482015260448082018490528251808303909101815260649091019091526020810180516001600160e01b031663a9059cbb60e01b1790526136cf908490613e6a565b6060613bb484613f1b565b613bef5760405162461bcd60e51b81526004018080602001828103825260268152602001806154be6026913960400191505060405180910390fd5b600080856001600160a01b0316856040518082805190602001908083835b60208310613c2c5780518252601f199092019160209182019101613c0d565b6001836020036101000a038019825116818451168082178552505050505050905001915050600060405180830381855af49150503d8060008114613c8c576040519150601f19603f3d011682016040523d82523d6000602084013e613c91565b606091505b5091509150613ca1828286613f21565b9695505050505050565b801580613d31575060408051636eb1769f60e11b81523060048201526001600160a01b03848116602483015291519185169163dd62ed3e91604480820192602092909190829003018186803b158015613d0357600080fd5b505afa158015613d17573d6000803e3d6000fd5b505050506040513d6020811015613d2d57600080fd5b5051155b613d6c5760405162461bcd60e51b815260040180806020018281038252603681526020018061550e6036913960400191505060405180910390fd5b604080516001600160a01b038416602482015260448082018490528251808303909101815260649091019091526020810180516001600160e01b031663095ea7b360e01b1790526136cf908490613e6a565b6000826001600160a01b0316846001600160a01b03161115613dde579192915b836001600160a01b0316613e17606060ff16846001600160801b0316901b8686036001600160a01b0316866001600160a01b0316613fc5565b81613e1e57fe5b04949350505050565b6000826001600160a01b0316846001600160a01b03161115613e47579192915b613b4f826001600160801b03168585036001600160a01b0316600160601b613fc5565b6000613ebf826040518060400160405280602081526020017f5361666545524332303a206c6f772d6c6576656c2063616c6c206661696c6564815250856001600160a01b03166140749092919063ffffffff16565b8051909150156136cf57808060200190516020811015613ede57600080fd5b50516136cf5760405162461bcd60e51b815260040180806020018281038252602a8152602001806154e4602a913960400191505060405180910390fd5b3b151590565b60608315613f305750816125ba565b825115613f405782518084602001fd5b8160405162461bcd60e51b81526004018080602001828103825283818151815260200191508051906020019080838360005b83811015613f8a578181015183820152602001613f72565b50505050905090810190601f168015613fb75780820380516001836020036101000a031916815260200191505b509250505060405180910390fd5b6000808060001985870986860292508281109083900303905080613ffb5760008411613ff057600080fd5b5082900490506125ba565b80841161400757600080fd5b6000848688096000868103871696879004966002600389028118808a02820302808a02820302808a02820302808a02820302808a02820302808a02909103029181900381900460010186841190950394909402919094039290920491909117919091029150509392505050565b6060613b4f84846000858561408885613f1b565b6140d9576040805162461bcd60e51b815260206004820152601d60248201527f416464726573733a2063616c6c20746f206e6f6e2d636f6e7472616374000000604482015290519081900360640190fd5b600080866001600160a01b031685876040518082805190602001908083835b602083106141175780518252601f1990920191602091820191016140f8565b6001836020036101000a03801982511681845116808217855250505050505090500191505060006040518083038185875af1925050503d8060008114614179576040519150601f19603f3d011682016040523d82523d6000602084013e61417e565b606091505b509150915061418e828286613f21565b979650505050505050565b604051806101a001604052806000815260200160008152602001600081526020016000815260200160008152602001600081526020016000815260200160006001600160a01b0316815260200160006001600160a01b0316815260200160006001600160a01b03168152602001600062ffffff168152602001600060020b8152602001600060020b81525090565b6040805161012081018252600080825260208201819052918101829052606081018290526080810182905260a0810182905260c0810182905260e0810182905261010081019190915290565b6040518060800160405280600081526020016000815260200160008152602001600081525090565b604051806101e0016040528060008152602001600081526020016000815260200160008152602001600060020b8152602001600060020b8152602001600061ffff16815260200160006001600160a01b0316815260200160006001600160a01b0316815260200160006001600160a01b03168152602001600081526020016000815260200160008152602001600015158152602001600081525090565b805161199e816153b4565b600082601f830112614353578081fd5b8151602061436861436383615397565b615374565b8281528181019085830183850287018401881015614384578586fd5b855b858110156143ab578151614399816153b4565b84529284019290840190600101614386565b5090979650505050505050565b803561199e816153cc565b805161199e816153da565b6000608082840312156143df578081fd5b50919050565b805161199e816153e9565b805161ffff8116811461199e57600080fd5b805161199e816153fe565b80356001600160401b038116811461199e57600080fd5b600060208284031215614435578081fd5b81356125ba816153b4565b600060208284031215614451578081fd5b81516125ba816153b4565b6000806040838503121561446e578081fd5b8235614479816153b4565b91506020830135614489816153b4565b809150509250929050565b6000806000606084860312156144a8578081fd5b83356144b3816153b4565b925060208401356144c3816153b4565b929592945050506040919091013590565b6000806000806000608086880312156144eb578283fd5b85356144f6816153b4565b94506020860135614506816153b4565b93506040860135925060608601356001600160401b0380821115614528578283fd5b818801915088601f83011261453b578283fd5b813581811115614549578384fd5b89602082850101111561455a578384fd5b9699959850939650602001949392505050565b6000806040838503121561457f578182fd5b823561458a816153b4565b946020939093013593505050565b600080602083850312156145aa578182fd5b82356001600160401b03808211156145c0578384fd5b818501915085601f8301126145d3578384fd5b8135818111156145e1578485fd5b86602080830285010111156145f4578485fd5b60209290920196919550909350505050565b60008060408385031215614618578182fd5b82516001600160401b038082111561462e578384fd5b818501915085601f830112614641578384fd5b8151602061465161436383615397565b82815281810190858301838502870184018b101561466d578889fd5b8896505b8487101561469d5780518060060b811461468957898afd5b835260019690960195918301918301614671565b50918801519196509093505050808211156146b6578283fd5b506146c385828601614343565b9150509250929050565b6000602082840312156146de578081fd5b81516125ba816153cc565b6000602082840312156146fa578081fd5b81356125ba816153da565b600060a08284031215614716578081fd5b60405160a081018181106001600160401b038211171561473257fe5b6040528235815260208301356003811061474a578283fd5b6020820152604083013561475d816153cc565b60408201526060830135614770816153cc565b60608201526080928301359281019290925250919050565b600060808284031215614799578081fd5b6125ba83836143ce565b600060c082840312156143df578081fd5b600061012082840312156143df578081fd5b6000602082840312156147d7578081fd5b81356125ba816153e9565b6000806000606084860312156147f6578081fd5b8351614801816153e9565b602085015160409095015190969495509392505050565b600080600080600080600060e0888a031215614832578485fd5b875161483d816153b4565b602089015190975061484e816153da565b955061485c604089016143f0565b945061486a606089016143f0565b9350614878608089016143f0565b925060a088015160ff8116811461488d578283fd5b60c089015190925061489e816153cc565b8091505092959891949750929550565b6000602082840312156148bf578081fd5b81356125ba816153fe565b6000602082840312156148db578081fd5b5035919050565b6000602082840312156148f3578081fd5b5051919050565b6000806000806080858703121561490f578182fd5b84359350602080860135614922816153b4565b935060408601356001600160401b038082111561493d578485fd5b818801915088601f830112614950578485fd5b81358181111561495c57fe5b61496e601f8201601f19168501615374565b91508082528984828501011115614983578586fd5b808484018584013781019092019390935291506149a2606086016143b8565b905092959194509250565b600080600080608085870312156149c2578182fd5b8451935060208501516149d4816153e9565b6040860151606090960151949790965092505050565b600080604083850312156149fc578182fd5b505080516020909101519092909150565b600060208284031215614a1e578081fd5b813563ffffffff811681146125ba578182fd5b60008060408385031215614a43578182fd5b614a4c8361440d565b9150614a5a6020840161440d565b90509250929050565b6000806000806000806000806000806000806101808d8f031215614a85578586fd5b8c516bffffffffffffffffffffffff81168114614aa0578687fd5b9b50614aae60208e01614338565b9a50614abc60408e01614338565b9950614aca60608e01614338565b9850614ad860808e01614402565b9750614ae660a08e016143c3565b9650614af460c08e016143c3565b9550614b0260e08e016143e5565b94506101008d015193506101208d01519250614b216101408e016143e5565b9150614b306101608e016143e5565b90509295989b509295989b509295989b565b6001600160a01b03169052565b60008151808452815b81811015614b7457602081850181015186830182015201614b58565b81811115614b855782602083870101525b50601f01601f19169290920160200192915050565b60020b9052565b62ffffff169052565b606093841b6bffffffffffffffffffffffff19908116825260e89390931b6001600160e81b0319166014820152921b166017820152602b0190565b90565b6001600160a01b0391909116815260200190565b6001600160a01b039485168152928416602084015292166040820152606081019190915260800190565b6001600160a01b039384168152919092166020820152604081019190915260600190565b6001600160a01b03969096168652602086019490945260408501929092526060840152608083015260a082015260c00190565b6001600160a01b0392909216825263ffffffff16602082015260400190565b6001600160a01b039390931683526001600160401b03918216602084015216604082015260600190565b6001600160a01b0392831681529116602082015260400190565b6001600160a01b03938416815291909216602082015262ffffff909116604082015260600190565b6001600160a01b0385811682528416602082015260408101839052608060608201819052600090613ca190830184614b4f565b6001600160a01b03929092168252602082015260400190565b6000602080830181845280855180835260408601915060408482028701019250838701855b82811015614da757603f19888603018452614d95858351614b4f565b94509285019290850190600101614d79565b5092979650505050505050565b6020808252825182820181905260009190848201906040850190845b81811015614df257835163ffffffff1683529284019291840191600101614dd0565b50909695505050505050565b6001600160e01b031991909116815260200190565b6020808252600d908201526c3737903bb2ba34103a37b5b2b760991b604082015260600190565b6020808252818101527f636f6d706f756e646572426f6e75735836343e746f74616c426f6e7573583634604082015260600190565b6020808252600e908201526d616d6f756e743e62616c616e636560901b604082015260600190565b6020808252600f908201526e6e6f207469636b20686973746f727960881b604082015260600190565b6020808252600a908201526921756e69763320706f7360b01b604082015260600190565b6020808252600e908201526d0f9d1bdd185b109bdb9d5cd60d8d60921b604082015260600190565b6020808252600d908201526c195d1a081ddc985c0819985a5b609a1b604082015260600190565b60208082526010908201526f191958591b1a5b994f985b1b1bddd95960821b604082015260600190565b6020808252600e908201526d746f6b656e303d3d746f6b656e3160901b604082015260600190565b602080825260099082015268383934b1b29032b93960b91b604082015260600190565b6020808252601590820152741b585e081c1bdcda5d1a5bdb9cc81c995858da1959605a1b604082015260600190565b602080825260089082015267746f3d3d7468697360c01b604082015260600190565b60208082526006908201526508599bdd5b9960d21b604082015260600190565b60208082526006908201526510b7bbb732b960d11b604082015260600190565b6020808252600990820152680616d6f756e743d3d360bc1b604082015260600190565b81358152608081016020830135615072816153b4565b6001600160a01b03166020830152604083013561508e816153e9565b6001600160801b0390811660408401526060840135906150ad826153e9565b8082166060850152505092915050565b815181526020808301516001600160a01b0316908201526040808301516001600160801b0390811691830191909152606092830151169181019190915260800190565b600060a082019050825182526001600160801b03602084015116602083015260408301516040830152606083015160608301526080830151608083015292915050565b600060208252825160a0602084015261515f60c0840182614b4f565b905060018060a01b0360208501511660408401526040840151606084015260608401516080840152608084015160a08401528091505092915050565b600060c082019050825182526020830151602083015260408301516040830152606083015160608301526080830151608083015260a083015160a083015292915050565b6000610160820190506151f3828451614b42565b60208301516152056020840182614b42565b5060408301516152186040840182614ba1565b50606083015161522b6060840182614b9a565b50608083015161523e6080840182614b9a565b5060a083015160a083015260c083015160c083015260e083015160e08301526101008084015181840152506101208084015161527c82850182614b42565b505061014092830151919092015290565b6001600160801b039390931683526020830191909152604082015260600190565b90815260200190565b9384526001600160801b039290921660208401526040830152606082015260800190565b918252602082015260400190565b93845260208401929092526040830152606082015260800190565b63ffffffff91909116815260200190565b6001600160401b0391909116815260200190565b6000808335601e1984360301811261533f578283fd5b8301803591506001600160401b03821115615358578283fd5b60200191503681900382131561536d57600080fd5b9250929050565b6040518181016001600160401b038111828210171561538f57fe5b604052919050565b60006001600160401b038211156153aa57fe5b5060209081020190565b6001600160a01b03811681146153c957600080fd5b50565b80151581146153c957600080fd5b8060020b81146153c957600080fd5b6001600160801b03811681146153c957600080fd5b62ffffff811681146153c957600080fdfe5265656e7472616e637947756172643a207265656e7472616e742063616c6c004f776e61626c653a206e6577206f776e657220697320746865207a65726f2061646472657373536166654d6174683a206d756c7469706c69636174696f6e206f766572666c6f774f776e61626c653a2063616c6c6572206973206e6f7420746865206f776e6572416464726573733a206c6f772d6c6576656c2064656c65676174652063616c6c206661696c6564416464726573733a2064656c65676174652063616c6c20746f206e6f6e2d636f6e74726163745361666545524332303a204552433230206f7065726174696f6e20646964206e6f7420737563636565645361666545524332303a20617070726f76652066726f6d206e6f6e2d7a65726f20746f206e6f6e2d7a65726f20616c6c6f77616e6365a2646970667358221220238b568f29e964220bc37a2d865203d138e3e83de5caa02b7b32fbe2af0af42064736f6c63430007060033",
  "linkReferences": {},
  "deployedLinkReferences": {}
}