{
  "_format": "hh-sol-artifact-1",
  "contractName": "MultiCompoundor",
  "sourceName": "contracts/MultiCompoundor.sol",
  "abi": [
    {
      "inputs": [],
      "stateMutability": "nonpayable",
      "type": "constructor"
    },
    {
      "inputs": [
        {
          "internalType": "uint256[]",
          "name": "tokenIds",
          "type": "uint256[]"
        }
      ],
      "name": "runConv0NoSwap",
      "outputs": [],
      "stateMutability": "nonpayable",
      "type": "function"
    },
    {
      "inputs": [
        {
          "internalType": "uint256[]",
          "name": "tokenIds",
          "type": "uint256[]"
        }
      ],
      "name": "runConv0Swap",
      "outputs": [],
      "stateMutability": "nonpayable",
      "type": "function"
    },
    {
      "inputs": [
        {
          "internalType": "uint256[]",
          "name": "tokenIds",
          "type": "uint256[]"
        }
      ],
      "name": "runConv1NoSwap",
      "outputs": [],
      "stateMutability": "nonpayable",
      "type": "function"
    },
    {
      "inputs": [
        {
          "internalType": "uint256[]",
          "name": "tokenIds",
          "type": "uint256[]"
        }
      ],
      "name": "runConv1Swap",
      "outputs": [],
      "stateMutability": "nonpayable",
      "type": "function"
    }
  ],
  "bytecode": "0x6080604052600080546001600160a01b031916735411894842e610c4d0f6ed4c232da689400f94a117905534801561003657600080fd5b506105bc806100466000396000f3fe608060405234801561001057600080fd5b506004361061004c5760003560e01c8063384529671461005157806357f8c4d614610066578063625921f414610079578063c5de42bc1461008c575b600080fd5b61006461005f3660046104a5565b61009f565b005b6100646100743660046104a5565b6101a5565b6100646100873660046104a5565b6102a5565b61006461009a3660046104a5565b6103a5565b8060005b8181101561019f57600054604080516080810190915273ffffffffffffffffffffffffffffffffffffffff909116906318f3fd4d90808787868181106100e557fe5b602090810292909201358352500160018152600060208201819052604091820152517fffffffff0000000000000000000000000000000000000000000000000000000060e084901b16815261013d9190600401610549565b608060405180830381600087803b15801561015757600080fd5b505af115801561016b573d6000803e3d6000fd5b505050506040513d601f19601f8201168201806040525081019061018f9190610514565b5050600190920191506100a39050565b50505050565b8060005b8181101561019f57600054604080516080810190915273ffffffffffffffffffffffffffffffffffffffff909116906318f3fd4d90808787868181106101eb57fe5b602090810292909201358352500160028152600060208201526001604091820152517fffffffff0000000000000000000000000000000000000000000000000000000060e084901b1681526102439190600401610549565b608060405180830381600087803b15801561025d57600080fd5b505af1158015610271573d6000803e3d6000fd5b505050506040513d601f19601f820116820180604052508101906102959190610514565b5050600190920191506101a99050565b8060005b8181101561019f57600054604080516080810190915273ffffffffffffffffffffffffffffffffffffffff909116906318f3fd4d90808787868181106102eb57fe5b602090810292909201358352500160028152600060208201819052604091820152517fffffffff0000000000000000000000000000000000000000000000000000000060e084901b1681526103439190600401610549565b608060405180830381600087803b15801561035d57600080fd5b505af1158015610371573d6000803e3d6000fd5b505050506040513d601f19601f820116820180604052508101906103959190610514565b5050600190920191506102a99050565b8060005b8181101561019f57600054604080516080810190915273ffffffffffffffffffffffffffffffffffffffff909116906318f3fd4d90808787868181106103eb57fe5b602090810292909201358352500160018152600060208201526001604091820152517fffffffff0000000000000000000000000000000000000000000000000000000060e084901b1681526104439190600401610549565b608060405180830381600087803b15801561045d57600080fd5b505af1158015610471573d6000803e3d6000fd5b505050506040513d601f19601f820116820180604052508101906104959190610514565b5050600190920191506103a99050565b600080602083850312156104b7578182fd5b823567ffffffffffffffff808211156104ce578384fd5b818501915085601f8301126104e1578384fd5b8135818111156104ef578485fd5b8660208083028501011115610502578485fd5b60209290920196919550909350505050565b60008060008060808587031215610529578182fd5b505082516020840151604085015160609095015191969095509092509050565b81518152602082015160808201906003811061056157fe5b806020840152506040830151151560408301526060830151151560608301529291505056fea2646970667358221220414fb9ba03d8703489b12d231c013a0b4a0507d37932bb667f86f5d509160cc464736f6c63430007060033",
  "linkReferences": {},
  "deployedLinkReferences": {}
}